{
  "contractName": "plateformPSAT",
  "abi": [
    {
      "inputs": [],
      "payable": false,
      "stateMutability": "nonpayable",
      "type": "constructor",
      "signature": "constructor"
    },
    {
      "constant": false,
      "inputs": [
        {
          "name": "_name",
          "type": "string"
        },
        {
          "name": "_typeAct",
          "type": "string"
        },
        {
          "name": "_country",
          "type": "string"
        },
        {
          "name": "_dbNum",
          "type": "uint256"
        }
      ],
      "name": "addActor",
      "outputs": [],
      "payable": false,
      "stateMutability": "nonpayable",
      "type": "function",
      "signature": "0xb33cd41a"
    },
    {
      "constant": false,
      "inputs": [
        {
          "name": "actorId",
          "type": "uint256"
        },
        {
          "name": "isFournisseur",
          "type": "bool"
        }
      ],
      "name": "proposePartnership",
      "outputs": [],
      "payable": false,
      "stateMutability": "nonpayable",
      "type": "function",
      "signature": "0xf719449d"
    },
    {
      "constant": false,
      "inputs": [
        {
          "name": "partnershipId",
          "type": "uint256"
        }
      ],
      "name": "acceptPartnership",
      "outputs": [],
      "payable": false,
      "stateMutability": "nonpayable",
      "type": "function",
      "signature": "0x912baedb"
    },
    {
      "constant": false,
      "inputs": [
        {
          "name": "_partnerId",
          "type": "uint256"
        },
        {
          "name": "_date",
          "type": "string"
        },
        {
          "name": "_entranceProductId",
          "type": "uint256"
        }
      ],
      "name": "createTransaction",
      "outputs": [],
      "payable": false,
      "stateMutability": "nonpayable",
      "type": "function",
      "signature": "0x87a56f95"
    },
    {
      "constant": false,
      "inputs": [
        {
          "name": "_transactionId",
          "type": "uint256"
        },
        {
          "name": "_productExitId",
          "type": "uint256"
        }
      ],
      "name": "addProductExitIdToTransaction",
      "outputs": [],
      "payable": false,
      "stateMutability": "nonpayable",
      "type": "function",
      "signature": "0x66bcccdf"
    },
    {
      "constant": true,
      "inputs": [
        {
          "name": "_productId",
          "type": "uint256"
        }
      ],
      "name": "getProductHistory",
      "outputs": [
        {
          "name": "",
          "type": "string"
        }
      ],
      "payable": false,
      "stateMutability": "view",
      "type": "function",
      "signature": "0x57a096a1"
    },
    {
      "constant": true,
      "inputs": [],
      "name": "seeActors",
      "outputs": [
        {
          "name": "",
          "type": "string"
        }
      ],
      "payable": false,
      "stateMutability": "view",
      "type": "function",
      "signature": "0xad84f462"
    },
    {
      "constant": true,
      "inputs": [],
      "name": "seeTransactions",
      "outputs": [
        {
          "name": "",
          "type": "string"
        }
      ],
      "payable": false,
      "stateMutability": "view",
      "type": "function",
      "signature": "0x0f77d5ba"
    },
    {
      "constant": true,
      "inputs": [],
      "name": "seePartners",
      "outputs": [
        {
          "name": "",
          "type": "string"
        }
      ],
      "payable": false,
      "stateMutability": "view",
      "type": "function",
      "signature": "0xbf6939e3"
    },
    {
      "constant": true,
      "inputs": [],
      "name": "seePartnershipProposals",
      "outputs": [
        {
          "components": [
            {
              "name": "id",
              "type": "uint256"
            },
            {
              "name": "asker",
              "type": "address"
            },
            {
              "name": "needToAccept",
              "type": "address"
            },
            {
              "name": "isAccepted",
              "type": "bool"
            },
            {
              "name": "askerIsFournisseur",
              "type": "bool"
            }
          ],
          "name": "",
          "type": "tuple[]"
        }
      ],
      "payable": false,
      "stateMutability": "view",
      "type": "function",
      "signature": "0xe24118fa"
    },
    {
      "constant": true,
      "inputs": [
        {
          "name": "_actorId",
          "type": "uint256"
        }
      ],
      "name": "seeAllPotentielFournisseurs",
      "outputs": [
        {
          "name": "",
          "type": "string"
        }
      ],
      "payable": false,
      "stateMutability": "view",
      "type": "function",
      "signature": "0x69427933"
    }
  ],
  "bytecode": "0x60806040526000600455600060055560006006553480156200002057600080fd5b50600480546001810190915560009073b1b890ae2292c878b16bc11a652da1255d7e2a6190600c62000051620017f9565b6200005f9392919062001e6f565b604051809103906000f0801580156200007c573d6000803e3d6000fd5b508154600180820184556000938452602084209091018054600160a060020a031916600160a060020a039390931692909217909155600480549182019055737cded932cc982e81a0e1914deeafa7c602bccabe906040620000dc620017f9565b620000ea939291906200203b565b604051809103906000f08015801562000107573d6000803e3d6000fd5b508154600180820184556000938452602084209091018054600160a060020a031916600160a060020a0393909316929092179091556004805491820190557350d6b8739caee5fe1dfc7b3bf939e2390a08bc4190603262000167620017f9565b620001759392919062001da6565b604051809103906000f08015801562000192573d6000803e3d6000fd5b508154600180820184556000938452602084209091018054600160a060020a031916600160a060020a039390931692909217909155600480549182019055739b40ecbc96f5fde9e498d6183f156aebb0a0d36190604e620001f2620017f9565b620002009392919062002097565b604051809103906000f0801580156200021d573d6000803e3d6000fd5b508154600180820184556000938452602084209091018054600160a060020a031916600160a060020a03939093169290921790915560048054918201905573cb8f292c0799379b9d24b681dfe173854fce83a990605c6200027d620017f9565b6200028b9392919062001e13565b604051809103906000f080158015620002a8573d6000803e3d6000fd5b508154600180820184556000938452602084209091018054600160a060020a031916600160a060020a03939093169290921790915560048054918201905573316f3ebbbe6011072a361e6fb2d0f49c99dc91a99060f262000308620017f9565b620003169392919062001ecb565b604051809103906000f08015801562000333573d6000803e3d6000fd5b508154600180820184556000938452602084209091018054600160a060020a031916600160a060020a03939093169290921790915560048054918201905573b4a73aff3c51e014920219619dfa295c2cad61fc906102a662000394620017f9565b620003a29392919062001f27565b604051809103906000f080158015620003bf573d6000803e3d6000fd5b508154600180820184556000938452602084209091018054600160a060020a031916600160a060020a039390931692909217909155600480549182019055732cc30a061b4719b4f91359cb826b31c9fe18761f9060596200041f620017f9565b6200042d9392919062001f83565b604051809103906000f0801580156200044a573d6000803e3d6000fd5b508154600180820184556000938452602084209091018054600160a060020a031916600160a060020a0393909316929092179091556004805491820190557365c087d9ef1fc3dbbd18ee525dfd9e5e05aaaa48906052620004aa620017f9565b620004b89392919062001fdf565b604051809103906000f080158015620004d5573d6000803e3d6000fd5b508154600181018355600092835260208320018054600160a060020a031916600160a060020a039290921691909117905580548190819081106200051557fe5b60009182526020822001548154600160a060020a039091169250819060019081106200053d57fe5b60009182526020822001548154600160a060020a039091169250819060029081106200056557fe5b60009182526020822001548154600160a060020a039091169250819060039081106200058d57fe5b60009182526020822001548154600160a060020a03909116925081906004908110620005b557fe5b60009182526020822001548154600160a060020a03909116925081906005908110620005dd57fe5b60009182526020822001548154600160a060020a039091169250819060069081106200060557fe5b60009182526020822001548154600160a060020a039091169250819060079081106200062d57fe5b60009182526020822001548154600160a060020a039091169250819060089081106200065557fe5b60009182526020822001546040517fa46dc646000000000000000000000000000000000000000000000000000000008152600160a060020a039182169350908b169163a46dc64691620006ad918a91600401620020f3565b600060405180830381600087803b158015620006c857600080fd5b505af1158015620006dd573d6000803e3d6000fd5b50506040517fa46dc646000000000000000000000000000000000000000000000000000000008152600160a060020a038916925063a46dc64691506200072b908c90600190600401620020f3565b600060405180830381600087803b1580156200074657600080fd5b505af11580156200075b573d6000803e3d6000fd5b50506040517fa46dc646000000000000000000000000000000000000000000000000000000008152600160a060020a038c16925063a46dc6469150620007a9908790600090600401620020f3565b600060405180830381600087803b158015620007c457600080fd5b505af1158015620007d9573d6000803e3d6000fd5b50506040517fa46dc646000000000000000000000000000000000000000000000000000000008152600160a060020a038716925063a46dc646915062000827908c90600190600401620020f3565b600060405180830381600087803b1580156200084257600080fd5b505af115801562000857573d6000803e3d6000fd5b50506040517fa46dc646000000000000000000000000000000000000000000000000000000008152600160a060020a038b16925063a46dc6469150620008a5908890600090600401620020f3565b600060405180830381600087803b158015620008c057600080fd5b505af1158015620008d5573d6000803e3d6000fd5b50506040517fa46dc646000000000000000000000000000000000000000000000000000000008152600160a060020a038816925063a46dc646915062000923908b90600190600401620020f3565b600060405180830381600087803b1580156200093e57600080fd5b505af115801562000953573d6000803e3d6000fd5b50506040517fa46dc646000000000000000000000000000000000000000000000000000000008152600160a060020a038b16925063a46dc6469150620009a1908790600090600401620020f3565b600060405180830381600087803b158015620009bc57600080fd5b505af1158015620009d1573d6000803e3d6000fd5b50506040517fa46dc646000000000000000000000000000000000000000000000000000000008152600160a060020a038716925063a46dc646915062000a1f908b90600190600401620020f3565b600060405180830381600087803b15801562000a3a57600080fd5b505af115801562000a4f573d6000803e3d6000fd5b50506040517fa46dc646000000000000000000000000000000000000000000000000000000008152600160a060020a038a16925063a46dc646915062000a9d908790600090600401620020f3565b600060405180830381600087803b15801562000ab857600080fd5b505af115801562000acd573d6000803e3d6000fd5b50506040517fa46dc646000000000000000000000000000000000000000000000000000000008152600160a060020a038716925063a46dc646915062000b1b908a90600190600401620020f3565b600060405180830381600087803b15801562000b3657600080fd5b505af115801562000b4b573d6000803e3d6000fd5b50506040517fa46dc646000000000000000000000000000000000000000000000000000000008152600160a060020a038716925063a46dc646915062000b99908890600090600401620020f3565b600060405180830381600087803b15801562000bb457600080fd5b505af115801562000bc9573d6000803e3d6000fd5b50506040517fa46dc646000000000000000000000000000000000000000000000000000000008152600160a060020a038816925063a46dc646915062000c17908790600190600401620020f3565b600060405180830381600087803b15801562000c3257600080fd5b505af115801562000c47573d6000803e3d6000fd5b50506040517fa46dc646000000000000000000000000000000000000000000000000000000008152600160a060020a038916925063a46dc646915062000c95908690600090600401620020f3565b600060405180830381600087803b15801562000cb057600080fd5b505af115801562000cc5573d6000803e3d6000fd5b50506040517fa46dc646000000000000000000000000000000000000000000000000000000008152600160a060020a038616925063a46dc646915062000d13908990600190600401620020f3565b600060405180830381600087803b15801562000d2e57600080fd5b505af115801562000d43573d6000803e3d6000fd5b50506040517fa46dc646000000000000000000000000000000000000000000000000000000008152600160a060020a038916925063a46dc646915062000d91908590600090600401620020f3565b600060405180830381600087803b15801562000dac57600080fd5b505af115801562000dc1573d6000803e3d6000fd5b50506040517fa46dc646000000000000000000000000000000000000000000000000000000008152600160a060020a038516925063a46dc646915062000e0f908990600190600401620020f3565b600060405180830381600087803b15801562000e2a57600080fd5b505af115801562000e3f573d6000803e3d6000fd5b50506040517fa46dc646000000000000000000000000000000000000000000000000000000008152600160a060020a038816925063a46dc646915062000e8d908590600090600401620020f3565b600060405180830381600087803b15801562000ea857600080fd5b505af115801562000ebd573d6000803e3d6000fd5b50506040517fa46dc646000000000000000000000000000000000000000000000000000000008152600160a060020a038516925063a46dc646915062000f0b908890600190600401620020f3565b600060405180830381600087803b15801562000f2657600080fd5b505af115801562000f3b573d6000803e3d6000fd5b50506040517fa46dc646000000000000000000000000000000000000000000000000000000008152600160a060020a038716925063a46dc646915062000f89908590600090600401620020f3565b600060405180830381600087803b15801562000fa457600080fd5b505af115801562000fb9573d6000803e3d6000fd5b50506040517fa46dc646000000000000000000000000000000000000000000000000000000008152600160a060020a038516925063a46dc646915062001007908790600190600401620020f3565b600060405180830381600087803b1580156200102257600080fd5b505af115801562001037573d6000803e3d6000fd5b50506040517fa46dc646000000000000000000000000000000000000000000000000000000008152600160a060020a038716925063a46dc646915062001085908490600090600401620020f3565b600060405180830381600087803b158015620010a057600080fd5b505af1158015620010b5573d6000803e3d6000fd5b50506040517fa46dc646000000000000000000000000000000000000000000000000000000008152600160a060020a038416925063a46dc646915062001103908790600190600401620020f3565b600060405180830381600087803b1580156200111e57600080fd5b505af115801562001133573d6000803e3d6000fd5b505060058054600181019091556000925090508a886043620011546200180a565b62001163949392919062002128565b604051809103906000f08015801562001180573d6000803e3d6000fd5b506040517ff2e4797e000000000000000000000000000000000000000000000000000000008152909150600160a060020a0382169063f2e4797e90620011cc90603b9060040162002112565b602060405180830381600087803b158015620011e757600080fd5b505af1158015620011fc573d6000803e3d6000fd5b505050506040513d601f19601f8201168201806040525062001222919081019062001830565b5060026020527fa325aa408b8d79ac3cad595647b5c792e1aaac5507b7d2a601e7daa894133a4f8054600160a060020a038316600160a060020a0319918216811790925560018054808201825560008281526000805160206200a6e683398151915290910180549093169093179091556005805491820190558886603b620012a96200180a565b620012b8949392919062002128565b604051809103906000f080158015620012d5573d6000803e3d6000fd5b506040517ff2e4797e000000000000000000000000000000000000000000000000000000008152909150600160a060020a0382169063f2e4797e90620013219060989060040162002112565b602060405180830381600087803b1580156200133c57600080fd5b505af115801562001351573d6000803e3d6000fd5b505050506040513d601f19601f8201168201806040525062001377919081019062001830565b5060026020527f7a03c1abf214e7d05d98e47214b2afe1f19999801c94384c4bfbd3508c2a538a8054600160a060020a038316600160a060020a0319918216811790925560018054808201825560008281526000805160206200a6e683398151915290910180549093169093179091556005805491820190558b8861031a620013ff6200180a565b6200140e949392919062002128565b604051809103906000f0801580156200142b573d6000803e3d6000fd5b506040517ff2e4797e000000000000000000000000000000000000000000000000000000008152909150600160a060020a0382169063f2e4797e906200147790600c9060040162002112565b602060405180830381600087803b1580156200149257600080fd5b505af1158015620014a7573d6000803e3d6000fd5b505050506040513d601f19601f82011682018060405250620014cd919081019062001830565b5060026020527fbd814762a7e35d5c162a7570d14baa68bd622cabb1ad83d40dd70f8a88aa67c08054600160a060020a038316600160a060020a0319918216811790925560018054808201825560008281526000805160206200a6e68339815191529091018054909316909317909155600580549182019055888a600c620015546200180a565b62001563949392919062002128565b604051809103906000f08015801562001580573d6000803e3d6000fd5b506040517ff2e4797e000000000000000000000000000000000000000000000000000000008152909150600160a060020a0382169063f2e4797e90620015cc9060309060040162002112565b602060405180830381600087803b158015620015e757600080fd5b505af1158015620015fc573d6000803e3d6000fd5b505050506040513d601f19601f8201168201806040525062001622919081019062001830565b5060026020527fe7ee43b207a5830b8f1cfb6dd5e3a4a684b78ee29fa74602d586f8fb3f0c8bed8054600160a060020a038316600160a060020a0319918216811790925560018054808201825560008281526000805160206200a6e683398151915290910180549093169093179091556005805491820190558a886030620016a96200180a565b620016b8949392919062002128565b604051809103906000f080158015620016d5573d6000803e3d6000fd5b506040517ff2e4797e000000000000000000000000000000000000000000000000000000008152909150600160a060020a0382169063f2e4797e90620017229061034e9060040162002112565b602060405180830381600087803b1580156200173d57600080fd5b505af115801562001752573d6000803e3d6000fd5b505050506040513d601f19601f8201168201806040525062001778919081019062001830565b5060026020527f5cf89dfbeed4d5bf4275578ef645b665e31047367044813cb720c5d84c64c5af8054600160a060020a03909216600160a060020a031992831681179091556001805480820182556000919091526000805160206200a6e683398151915201805490921617905550620021be9b505050505050505050505050565b60405161163d8062007d4183390190565b604051611368806200937e83390190565b600062001829825162002190565b9392505050565b6000602082840312156200184357600080fd5b60006200185184846200181b565b949350505050565b620018648162002183565b82525050565b620018648162002190565b6200186481620021a4565b6200186481620021b1565b600581527f4361746879000000000000000000000000000000000000000000000000000000602082015260400190565b600681527f43616e6164610000000000000000000000000000000000000000000000000000602082015260400190565b600881527f4261707469737465000000000000000000000000000000000000000000000000602082015260400190565b600c81527f436f74746f6e20576f6f64730000000000000000000000000000000000000000602082015260400190565b600881527f4269726d616e6965000000000000000000000000000000000000000000000000602082015260400190565b600a81527f554220466163746f727900000000000000000000000000000000000000000000602082015260400190565b600a81527f554120466163746f727900000000000000000000000000000000000000000000602082015260400190565b600a81527f32362f30312f3230323100000000000000000000000000000000000000000000602082015260400190565b600981527f4142204661726d65720000000000000000000000000000000000000000000000602082015260400190565b600a81527f42616e676c616465736800000000000000000000000000000000000000000000602082015260400190565b600581527f4368696e65000000000000000000000000000000000000000000000000000000602082015260400190565b600681527f416c626572740000000000000000000000000000000000000000000000000000602082015260400190565b600781527f4361726e6f6c6400000000000000000000000000000000000000000000000000602082015260400190565b600681527f4173686c65790000000000000000000000000000000000000000000000000000602082015260400190565b600d81527f556e697465642053746174657300000000000000000000000000000000000000602082015260400190565b600781527f4261726e61626500000000000000000000000000000000000000000000000000602082015260400190565b600781527f43616e6469636500000000000000000000000000000000000000000000000000602082015260400190565b600781527f4d432053686f7000000000000000000000000000000000000000000000000000602082015260400190565b600581527f496e646961000000000000000000000000000000000000000000000000000000602082015260400190565b600781527f4d412053686f7000000000000000000000000000000000000000000000000000602082015260400190565b600a81527f554320466163746f727900000000000000000000000000000000000000000000602082015260400190565b600781527f4265726e61726400000000000000000000000000000000000000000000000000602082015260400190565b600681527f4672616e63650000000000000000000000000000000000000000000000000000602082015260400190565b600581527f436f726565000000000000000000000000000000000000000000000000000000602082015260400190565b600681527f41726e6f6c640000000000000000000000000000000000000000000000000000602082015260400190565b600981527f4143204661726d65720000000000000000000000000000000000000000000000602082015260400190565b600781527f4d422053686f7000000000000000000000000000000000000000000000000000602082015260400190565b6200186481620021a1565b60c0810162001db6828662001859565b62001dc5602083018562001d9b565b818103604083015262001dd8816200188b565b9050818103606083015262001ded81620018bb565b9050818103608083015262001e028162001d3b565b90506200185160a083018462001880565b60c0810162001e23828662001859565b62001e32602083018562001d9b565b818103604083015262001e4581620018eb565b9050818103606083015262001e5a8162001a3b565b9050818103608083015262001e02816200197b565b60c0810162001e7f828662001859565b62001e8e602083018562001d9b565b818103604083015262001ea18162001a9b565b9050818103606083015262001eb68162001b2b565b9050818103608083015262001e02816200191b565b60c0810162001edb828662001859565b62001eea602083018562001d9b565b818103604083015262001efd8162001acb565b9050818103606083015262001f128162001a6b565b9050818103608083015262001e028162001c4b565b60c0810162001f37828662001859565b62001f46602083018562001d9b565b818103604083015262001f598162001afb565b9050818103606083015262001f6e8162001cab565b9050818103608083015262001e028162001c1b565b60c0810162001f93828662001859565b62001fa2602083018562001d9b565b818103604083015262001fb58162001b5b565b9050818103606083015262001fca816200194b565b9050818103608083015262001e028162001d6b565b60c0810162001fef828662001859565b62001ffe602083018562001d9b565b8181036040830152620020118162001b8b565b90508181036060830152620020268162001cdb565b9050818103608083015262001e028162001bbb565b60c081016200204b828662001859565b6200205a602083018562001d9b565b81810360408301526200206d8162001c7b565b90508181036060830152620020828162001a6b565b9050818103608083015262001e028162001a0b565b60c08101620020a7828662001859565b620020b6602083018562001d9b565b8181036040830152620020c98162001d0b565b90508181036060830152620020de8162001beb565b9050818103608083015262001e0281620019ab565b6040810162002103828562001875565b6200182960208301846200186a565b6020810162002122828462001880565b92915050565b60a0810162002138828762001d9b565b62002147602083018662001875565b62002156604083018562001875565b81810360608301526200216981620019db565b90506200217a608083018462001880565b95945050505050565b6000620021228262002195565b151590565b600160a060020a031690565b90565b6000620021228262002183565b60006200212282620021a1565b615b7380620021ce6000396000f3fe608060405260043610620000a15763ffffffff60e060020a6000350416630f77d5ba8114620000a657806357a096a114620000d657806366bcccdf14620000fb57806369427933146200012257806387a56f951462000147578063912baedb146200016c578063ad84f4621462000191578063b33cd41a14620001a9578063bf6939e314620001ce578063e24118fa14620001e6578063f719449d146200020d575b600080fd5b348015620000b357600080fd5b50620000be62000232565b604051620000cd919062002ecc565b60405180910390f35b348015620000e357600080fd5b50620000be620000f536600462002614565b620003e5565b3480156200010857600080fd5b50620001206200011a36600462002702565b620006d4565b005b3480156200012f57600080fd5b50620000be6200014136600462002614565b62000820565b3480156200015457600080fd5b50620001206200016636600462002695565b62000f67565b3480156200017957600080fd5b50620001206200018b36600462002614565b620010a3565b3480156200019e57600080fd5b50620000be62001306565b348015620001b657600080fd5b5062000120620001c836600462002560565b620014b3565b348015620001db57600080fd5b50620000be62001573565b348015620001f357600080fd5b50620001fe6200162f565b604051620000cd919062002e9a565b3480156200021a57600080fd5b50620001206200022c36600462002656565b62001768565b60608060005b600154811015620003df57816001828154811015156200025457fe5b6000918252602082200154604080517f47e468060000000000000000000000000000000000000000000000000000000081529051600160a060020a03909216926347e4680692600480840193829003018186803b158015620002b557600080fd5b505afa158015620002ca573d6000803e3d6000fd5b505050506040513d6000823e601f3d908101601f19168201604052620002f4919081019062002527565b6040516020018083805190602001908083835b60208310620003285780518252601f19909201916020918201910162000307565b51815160209384036101000a600019018019909216911617905285519190930192850191508083835b60208310620003725780518252601f19909201916020918201910162000351565b6001836020036101000a038019825116818451168082178552505050505050905001807f0a00000000000000000000000000000000000000000000000000000000000000815250600101925050506040516020818303038152906040529150808060010191505062000238565b50905090565b604080516020818101835260008083528481526002909152919091205460609190600160a060020a03168015620006cb578181600160a060020a03166347e468066040518163ffffffff1660e060020a02815260040160006040518083038186803b1580156200045457600080fd5b505afa15801562000469573d6000803e3d6000fd5b505050506040513d6000823e601f3d908101601f1916820160405262000493919081019062002527565b6040516020018083805190602001908083835b60208310620004c75780518252601f199092019160209182019101620004a6565b51815160209384036101000a600019018019909216911617905285519190930192850191508083835b60208310620005115780518252601f199092019160209182019101620004f0565b6001836020036101000a038019825116818451168082178552505050505050905001807f200a00000000000000000000000000000000000000000000000000000000000081525060020192505050604051602081830303815290604052915081620005ed82600160a060020a0316633c0881996040518163ffffffff1660e060020a02815260040160206040518083038186803b158015620005b257600080fd5b505afa158015620005c7573d6000803e3d6000fd5b505050506040513d601f19601f82011682018060405250620000f5919081019062002635565b6040516020018083805190602001908083835b60208310620006215780518252601f19909201916020918201910162000600565b51815160209384036101000a600019018019909216911617905285519190930192850191508083835b602083106200066b5780518252601f1990920191602091820191016200064a565b6001836020036101000a038019825116818451168082178552505050505050905001807f200a0000000000000000000000000000000000000000000000000000000000008152506002019250505060405160208183030381529060405291505b5090505b919050565b620006df81620019ad565b15156200070c5760405160e560020a62461bcd028152600401620007039062002f51565b60405180910390fd5b6000806200071a84620019c9565b9092509050811515620007445760405160e560020a62461bcd028152600401620007039062002f1b565b6040517ff2e4797e000000000000000000000000000000000000000000000000000000008152600160a060020a0382169063f2e4797e906200078b90869060040162003017565b602060405180830381600087803b158015620007a657600080fd5b505af1158015620007bb573d6000803e3d6000fd5b505050506040513d601f19601f82011682018060405250620007e1919081019062002506565b50600092835260026020526040909220805473ffffffffffffffffffffffffffffffffffffffff1916600160a060020a03909316929092179091555050565b6060806200082e8362001ac4565b1515620008525760405160e560020a62461bcd028152600401620007039062002f99565b60006200085f8462001b90565b9050606081600160a060020a031663fb62edb06040518163ffffffff1660e060020a02815260040160006040518083038186803b158015620008a057600080fd5b505afa158015620008b5573d6000803e3d6000fd5b505050506040513d6000823e601f3d908101601f19168201604052620008df9190810190620024cd565b80519091501562000f5e5781600160a060020a03166315dae03e6040518163ffffffff1660e060020a02815260040160006040518083038186803b1580156200092757600080fd5b505afa1580156200093c573d6000803e3d6000fd5b505050506040513d6000823e601f3d908101601f1916820160405262000966919081019062002527565b60405160200180807f466f75726e69737365757273206f66203a20000000000000000000000000000081525060120182805190602001908083835b60208310620009c25780518252601f199092019160209182019101620009a1565b5181516020939093036101000a60001901801990911692169190911790527f202d2d3e2000000000000000000000000000000000000000000000000000000092019182525060408051808303601a1901815260059092019052945060009150505b815181101562000f5c5783828281518110151562000a3d57fe5b90602001906020020151600160a060020a03166315dae03e6040518163ffffffff1660e060020a02815260040160006040518083038186803b15801562000a8357600080fd5b505afa15801562000a98573d6000803e3d6000fd5b505050506040513d6000823e601f3d908101601f1916820160405262000ac2919081019062002527565b838381518110151562000ad157fe5b90602001906020020151600160a060020a0316639e0c3ead6040518163ffffffff1660e060020a02815260040160006040518083038186803b15801562000b1757600080fd5b505afa15801562000b2c573d6000803e3d6000fd5b505050506040513d6000823e601f3d908101601f1916820160405262000b56919081019062002527565b62000bf0858581518110151562000b6957fe5b90602001906020020151600160a060020a031663dc2fa3776040518163ffffffff1660e060020a02815260040160206040518083038186803b15801562000baf57600080fd5b505afa15801562000bc4573d6000803e3d6000fd5b505050506040513d601f19601f8201168201806040525062000bea919081019062002635565b62001c7c565b6040516020018085805190602001908083835b6020831062000c245780518252601f19909201916020918201910162000c03565b51815160209384036101000a60001901801990921691161790527f2a2a2a2000000000000000000000000000000000000000000000000000000000919093019081528651600490910192870191508083835b6020831062000c975780518252601f19909201916020918201910162000c76565b51815160209384036101000a60001901801990921691161790527f2c20000000000000000000000000000000000000000000000000000000000000919093019081528551600290910192860191508083835b6020831062000d0a5780518252601f19909201916020918201910162000ce9565b51815160209384036101000a60001901801990921691161790527f2c2044424e756d203a2000000000000000000000000000000000000000000000919093019081528451600a90910192850191508083835b6020831062000d7d5780518252601f19909201916020918201910162000d5c565b6001836020036101000a038019825116818451168082178552505050505050905001807f202a2a2a0000000000000000000000000000000000000000000000000000000081525060040194505050505060405160208183030381529060405293508362000e73838381518110151562000df257fe5b90602001906020020151600160a060020a0316635d1ca6316040518163ffffffff1660e060020a02815260040160206040518083038186803b15801562000e3857600080fd5b505afa15801562000e4d573d6000803e3d6000fd5b505050506040513d601f19601f8201168201806040525062000141919081019062002635565b6040516020018083805190602001908083835b6020831062000ea75780518252601f19909201916020918201910162000e86565b51815160209384036101000a600019018019909216911617905285519190930192850191508083835b6020831062000ef15780518252601f19909201916020918201910162000ed0565b5181516020939093036101000a60001901801990911692169190911790527f200a00000000000000000000000000000000000000000000000000000000000092019182525060408051808303601d190181526002909201905296505050600191909101905062000a23565b505b50909392505050565b62000f723362001d9f565b151562000f965760405160e560020a62461bcd028152600401620007039062002f2d565b62000fa18362001ac4565b151562000fc55760405160e560020a62461bcd028152600401620007039062002f75565b600062000fd23362001e8a565b9050600062000fe18562001b90565b9050600160a060020a038281169082161415620010155760405160e560020a62461bcd028152600401620007039062002fcf565b600580546001818101909255838387876200102f620022cd565b6200103f95949392919062003027565b604051809103906000f0801580156200105c573d6000803e3d6000fd5b50815460018101835560009283526020909220909101805473ffffffffffffffffffffffffffffffffffffffff1916600160a060020a039092169190911790555050505050565b620010ae3362001d9f565b1515620010d25760405160e560020a62461bcd028152600401620007039062003005565b620010dc620022de565b6000620010e98362001f79565b9092509050801515620011135760405160e560020a62461bcd028152600401620007039062002f87565b60008260400151905060008360200151905033600160a060020a031682600160a060020a031663db613e816040518163ffffffff1660e060020a02815260040160206040518083038186803b1580156200116c57600080fd5b505afa15801562001181573d6000803e3d6000fd5b505050506040513d601f19601f82011682018060405250620011a79190810190620024a4565b600160a060020a031614620011d35760405160e560020a62461bcd028152600401620007039062002fbd565b60608401511515600114620011ff5760405160e560020a62461bcd028152600401620007039062002ef7565b60808401516040517fa46dc646000000000000000000000000000000000000000000000000000000008152600160a060020a0384169163a46dc646916200124b91859160040162002ead565b600060405180830381600087803b1580156200126657600080fd5b505af11580156200127b573d6000803e3d6000fd5b5050505060808401516040517f5e39c06d000000000000000000000000000000000000000000000000000000008152600160a060020a03831691635e39c06d91620012cb91869160040162002ead565b600060405180830381600087803b158015620012e657600080fd5b505af1158015620012fb573d6000803e3d6000fd5b505050505050505050565b60608060005b600054811015620003df57816000828154811015156200132857fe5b6000918252602082200154604080517f47e468060000000000000000000000000000000000000000000000000000000081529051600160a060020a03909216926347e4680692600480840193829003018186803b1580156200138957600080fd5b505afa1580156200139e573d6000803e3d6000fd5b505050506040513d6000823e601f3d908101601f19168201604052620013c8919081019062002527565b6040516020018083805190602001908083835b60208310620013fc5780518252601f199092019160209182019101620013db565b51815160209384036101000a600019018019909216911617905285519190930192850191508083835b60208310620014465780518252601f19909201916020918201910162001425565b6001836020036101000a038019825116818451168082178552505050505050905001807f0a0000000000000000000000000000000000000000000000000000000000000081525060010192505050604051602081830303815290604052915080806001019150506200130c565b620014be3362001d9f565b15620014e15760405160e560020a62461bcd028152600401620007039062002edf565b6004805460018101909155600090339086858786620014ff6200230c565b620015109695949392919062002e1f565b604051809103906000f0801580156200152d573d6000803e3d6000fd5b50815460018101835560009283526020909220909101805473ffffffffffffffffffffffffffffffffffffffff1916600160a060020a0390921691909117905550505050565b6060620015803362001d9f565b1515620015a45760405160e560020a62461bcd028152600401620007039062002f3f565b620015af3362001e8a565b600160a060020a031663bf6939e36040518163ffffffff1660e060020a02815260040160006040518083038186803b158015620015eb57600080fd5b505afa15801562001600573d6000803e3d6000fd5b505050506040513d6000823e601f3d908101601f191682016040526200162a919081019062002527565b905090565b60606200163c3362001d9f565b1515620016605760405160e560020a62461bcd028152600401620007039062002fe1565b336000908152600360205260409020541515620016945760405160e560020a62461bcd028152600401620007039062002f63565b33600090815260036020908152604080832080548251818502810185019093528083529193909284015b828210156200175f5760008481526020908190206040805160a0810182526003860290920180548352600180820154600160a060020a03908116858701526002909201549182169284019290925260ff740100000000000000000000000000000000000000008204811615156060850152750100000000000000000000000000000000000000000090910416151560808301529083529092019101620016be565b50505050905090565b620017733362001d9f565b1515620017975760405160e560020a62461bcd028152600401620007039062002f09565b620017a28262001ac4565b1515620017c65760405160e560020a62461bcd028152600401620007039062002fab565b600080620017d53385620020f0565b9092509050600160a060020a0380831690821614156200180c5760405160e560020a62461bcd028152600401620007039062002ff3565b6003600082600160a060020a031663db613e816040518163ffffffff1660e060020a02815260040160206040518083038186803b1580156200184d57600080fd5b505afa15801562001862573d6000803e3d6000fd5b505050506040513d601f19601f82011682018060405250620018889190810190620024a4565b600160a060020a03908116825260208083019390935260409182016000908120835160a081018552600680546001808201909255825297841681870190815296841694810194855260608101838152981515608082019081528254808a01845592845295909220915160039091029091019081559351948401805495821673ffffffffffffffffffffffffffffffffffffffff1996871617905590516002909301805495519251151575010000000000000000000000000000000000000000000275ff00000000000000000000000000000000000000000019931515740100000000000000000000000000000000000000000274ff00000000000000000000000000000000000000001995909316969095169590951792909216919091171617905550565b600090815260026020526040902054600160a060020a03161590565b60008080805b60015481101562001ab75784600182815481101515620019eb57fe5b600091825260209182902001546040805160e060020a635d1ca6310281529051600160a060020a0390921692635d1ca63192600480840193829003018186803b15801562001a3857600080fd5b505afa15801562001a4d573d6000803e3d6000fd5b505050506040513d601f19601f8201168201806040525062001a73919081019062002635565b141562001aae576001808281548110151562001a8b57fe5b600091825260209091200154909450600160a060020a0316925062001abf915050565b600101620019cf565b506000925090505b915091565b6000805b60005481101562001b87578260008281548110151562001ae457fe5b600091825260209182902001546040805160e060020a635d1ca6310281529051600160a060020a0390921692635d1ca63192600480840193829003018186803b15801562001b3157600080fd5b505afa15801562001b46573d6000803e3d6000fd5b505050506040513d601f19601f8201168201806040525062001b6c919081019062002635565b141562001b7e576001915050620006cf565b60010162001ac8565b50600092915050565b6000805b60005481101562001c76578260008281548110151562001bb057fe5b600091825260209182902001546040805160e060020a635d1ca6310281529051600160a060020a0390921692635d1ca63192600480840193829003018186803b15801562001bfd57600080fd5b505afa15801562001c12573d6000803e3d6000fd5b505050506040513d601f19601f8201168201806040525062001c38919081019062002635565b141562001c6d57600080548290811062001c4e57fe5b600091825260209091200154600160a060020a03169150620006cf9050565b60010162001b94565b50919050565b60608180151562001cc357505060408051808201909152600181527f30000000000000000000000000000000000000000000000000000000000000006020820152620006cf565b8060005b811562001cdd57600101600a8204915062001cc7565b6060816040519080825280601f01601f19166020018201604052801562001d0b576020820181803883390190505b50905060001982015b841562001d955781516000198201917f01000000000000000000000000000000000000000000000000000000000000006030600a8906010291849190811062001d5957fe5b9060200101907effffffffffffffffffffffffffffffffffffffffffffffffffffffffffffff1916908160001a905350600a8504945062001d14565b5095945050505050565b6000805b60005481101562001b875782600160a060020a031660008281548110151562001dc857fe5b60009182526020918290200154604080517fdb613e810000000000000000000000000000000000000000000000000000000081529051600160a060020a039092169263db613e8192600480840193829003018186803b15801562001e2b57600080fd5b505afa15801562001e40573d6000803e3d6000fd5b505050506040513d601f19601f8201168201806040525062001e669190810190620024a4565b600160a060020a0316141562001e81576001915050620006cf565b60010162001da3565b6000805b60005481101562001c765782600160a060020a031660008281548110151562001eb357fe5b60009182526020918290200154604080517fdb613e810000000000000000000000000000000000000000000000000000000081529051600160a060020a039092169263db613e8192600480840193829003018186803b15801562001f1657600080fd5b505afa15801562001f2b573d6000803e3d6000fd5b505050506040513d601f19601f8201168201806040525062001f519190810190620024a4565b600160a060020a0316141562001f7057600080548290811062001c4e57fe5b60010162001e8e565b62001f83620022de565b3360009081526003602090815260408083208054825181850281018501909352808352606093859084015b828210156200204f5760008481526020908190206040805160a0810182526003860290920180548352600180820154600160a060020a03908116858701526002909201549182169284019290925260ff74010000000000000000000000000000000000000000820481161515606085015275010000000000000000000000000000000000000000009091041615156080830152908352909201910162001fae565b5050505090506200205f620022de565b60005b8251811015620020e4578583828151811015156200207c57fe5b60209081029091010151511415620020db57600183828151811015156200209f57fe5b602090810290910101519015156060909101528251839082908110620020c157fe5b6020908102909101015194506001935062001abf92505050565b60010162002062565b50946000945092505050565b6000808080805b600054811015620022c15786600160a060020a03166000828154811015156200211c57fe5b60009182526020918290200154604080517fdb613e810000000000000000000000000000000000000000000000000000000081529051600160a060020a039092169263db613e8192600480840193829003018186803b1580156200217f57600080fd5b505afa15801562002194573d6000803e3d6000fd5b505050506040513d601f19601f82011682018060405250620021ba9190810190620024a4565b600160a060020a03161415620021f1576000805482908110620021d957fe5b600091825260209091200154600160a060020a031692505b856000828154811015156200220257fe5b600091825260209182902001546040805160e060020a635d1ca6310281529051600160a060020a0390921692635d1ca63192600480840193829003018186803b1580156200224f57600080fd5b505afa15801562002264573d6000803e3d6000fd5b505050506040513d601f19601f820116820180604052506200228a919081019062002635565b1415620022b8576000805482908110620022a057fe5b600091825260209091200154600160a060020a031691505b600101620020f7565b50909590945092505050565b604051611368806200317583390190565b6040805160a08101825260008082526020820181905291810182905260608101829052608081019190915290565b60405161163d80620044dd83390190565b60006200232b825162003101565b9392505050565b6000601f820183136200234457600080fd5b81516200235b6200235582620030ac565b62003084565b915081818352602084019350602081019050838560208402820111156200238157600080fd5b60005b83811015620023b157816200239a8882620023d7565b845250602092830192919091019060010162002384565b5050505092915050565b60006200232b82356200310e565b60006200232b82516200310e565b60006200232b825162003122565b6000601f82018313620023f757600080fd5b8135620024086200235582620030ce565b915080825260208301602083018583830111156200242557600080fd5b620024328382846200312f565b50505092915050565b6000601f820183136200244d57600080fd5b81516200245e6200235582620030ce565b915080825260208301602083018583830111156200247b57600080fd5b620024328382846200313b565b60006200232b82356200311f565b60006200232b82516200311f565b600060208284031215620024b757600080fd5b6000620024c584846200231d565b949350505050565b600060208284031215620024e057600080fd5b815167ffffffffffffffff811115620024f857600080fd5b620024c58482850162002332565b6000602082840312156200251957600080fd5b6000620024c58484620023c9565b6000602082840312156200253a57600080fd5b815167ffffffffffffffff8111156200255257600080fd5b620024c5848285016200243b565b600080600080608085870312156200257757600080fd5b843567ffffffffffffffff8111156200258f57600080fd5b6200259d87828801620023e5565b945050602085013567ffffffffffffffff811115620025bb57600080fd5b620025c987828801620023e5565b935050604085013567ffffffffffffffff811115620025e757600080fd5b620025f587828801620023e5565b9250506060620026088782880162002488565b91505092959194509250565b6000602082840312156200262757600080fd5b6000620024c5848462002488565b6000602082840312156200264857600080fd5b6000620024c5848462002496565b600080604083850312156200266a57600080fd5b600062002678858562002488565b92505060206200268b85828601620023bb565b9150509250929050565b600080600060608486031215620026ab57600080fd5b6000620026b9868662002488565b935050602084013567ffffffffffffffff811115620026d757600080fd5b620026e586828701620023e5565b9250506040620026f88682870162002488565b9150509250925092565b600080604083850312156200271657600080fd5b600062002724858562002488565b92505060206200268b8582860162002488565b620027428162003101565b82525050565b60006200275582620030fd565b8084526020840193506200276983620030f7565b60005b828110156200279f576200278286835162002da7565b6200278d82620030f7565b60a0969096019591506001016200276c565b5093949350505050565b62002742816200310e565b620027428162003122565b6000620027cc82620030fd565b808452620027e28160208601602086016200313b565b620027ed816200316a565b9093016020019392505050565b601d81527f546865207573657220697320616c72656164792072656769737465722e000000602082015260400190565b602581527f5468652070726f706f736974696f6e2077617320616c7265616479206163636560208201527f707465642e000000000000000000000000000000000000000000000000000000604082015260600190565b6038815260008051602062005b1a83398151915260208201527f20746f2070726f706f736520706172746e6572736869702e0000000000000000604082015260600190565b602881527f546865206964206f6620796f7572207472616e73616374696f6e206973206e6f60208201527f742076616c69642e000000000000000000000000000000000000000000000000604082015260600190565b602d81527f596f75206d75737420626520616e206163746f7220746f20637265617465206160208201527f207472616e73616374696f6e2e00000000000000000000000000000000000000604082015260600190565b6036815260008051602062005b1a83398151915260208201527f20746f2073656520796f757220706172746e6572732e00000000000000000000604082015260600190565b603381527f5468652070726f64756374206964206d75737420756e697175652c207468697360208201527f206f6e6520697320616c72656164792075736500000000000000000000000000604082015260600190565b602881527f596f7520646f6e2774206861766520616e7920706172746e657273686970207060208201527f726f706f73616c2e000000000000000000000000000000000000000000000000604082015260600190565b602481527f546865206964206f6620796f757220706172746e6572206973206e6f7420766160208201527f6c69642e00000000000000000000000000000000000000000000000000000000604082015260600190565b602181527f596f757220706172746e657273686970206964206973206e6f742076616c696460208201527f2e00000000000000000000000000000000000000000000000000000000000000604082015260600190565b6044815260008051602062005b1a83398151915260208201527f20746f2073656520796f757220706f74656e7469616c20666f75726e6973736560408201527f7572732e00000000000000000000000000000000000000000000000000000000606082015260800190565b603781527f546865206163746f7220696420796f752077616e7420746f20706172746e657260208201527f736869702077697468206973206e6f742076616c69642e000000000000000000604082015260600190565b603681527f596f752063616e20616363657074207468652070726f706f73616c206f6e6c7960208201527f206966206974207761732061736b20746f20796f752e00000000000000000000604082015260600190565b602181527f596f752063616e2774207472616e73616374207769746820796f757273656c6660208201527f2e00000000000000000000000000000000000000000000000000000000000000604082015260600190565b6046815260008051602062005b1a83398151915260208201527f20746f2073656520796f757220706172746e6572736869702070726f706f736960408201527f74696f6e732e0000000000000000000000000000000000000000000000000000606082015260800190565b602981527f596f752063616e2774206d616b6520706172746e65727368697020776974682060208201527f796f757273656c662e0000000000000000000000000000000000000000000000604082015260600190565b6046815260008051602062005b1a83398151915260208201527f20746f20616363657074206120706172746e6572736869702070726f706f736960408201527f74696f6e732e0000000000000000000000000000000000000000000000000000606082015260800190565b805160a083019062002dba848262002e14565b50602082015162002dcf6020850182620027b4565b50604082015162002de46040850182620027b4565b50606082015162002df96060850182620027a9565b50608082015162002e0e6080850182620027a9565b50505050565b62002742816200311f565b60c0810162002e2f828962002737565b62002e3e602083018862002e14565b818103604083015262002e528187620027bf565b9050818103606083015262002e688186620027bf565b9050818103608083015262002e7e8185620027bf565b905062002e8f60a083018462002e14565b979650505050505050565b602080825281016200232b818462002748565b6040810162002ebd8285620027b4565b6200232b6020830184620027a9565b602080825281016200232b8184620027bf565b6020808252810162002ef181620027fa565b92915050565b6020808252810162002ef1816200282a565b6020808252810162002ef18162002880565b6020808252810162002ef181620028c5565b6020808252810162002ef1816200291b565b6020808252810162002ef18162002971565b6020808252810162002ef181620029b6565b6020808252810162002ef18162002a0c565b6020808252810162002ef18162002a62565b6020808252810162002ef18162002ab8565b6020808252810162002ef18162002b0e565b6020808252810162002ef18162002b79565b6020808252810162002ef18162002bcf565b6020808252810162002ef18162002c25565b6020808252810162002ef18162002c7b565b6020808252810162002ef18162002ce6565b6020808252810162002ef18162002d3c565b6020810162002ef1828462002e14565b60a0810162003037828862002e14565b620030466020830187620027b4565b620030556040830186620027b4565b8181036060830152620030698185620027bf565b90506200307a608083018462002e14565b9695505050505050565b60405181810167ffffffffffffffff81118282101715620030a457600080fd5b604052919050565b600067ffffffffffffffff821115620030c457600080fd5b5060209081020190565b600067ffffffffffffffff821115620030e657600080fd5b506020601f91909101601f19160190565b60200190565b5190565b600062002ef18262003113565b151590565b600160a060020a031690565b90565b600062002ef18262003101565b82818337506000910152565b60005b83811015620031585781810151838201526020016200313e565b8381111562002e0e5750506000910152565b601f01601f19169056fe60806040523480156200001157600080fd5b5060405162001368380380620013688339810180604052620000379190810190620001b4565b600385905560008054600160a060020a03808716600160a060020a031992831617909255600180549286169290911691909117905581516200008190600290602085019062000090565b5060045550620002fa92505050565b828054600181600116156101000203166002900490600052602060002090601f016020900481019282601f10620000d357805160ff191683800117855562000103565b8280016001018555821562000103579182015b8281111562000103578251825591602001919060010190620000e6565b506200011192915062000115565b5090565b6200013291905b808211156200011157600081556001016200011c565b90565b6000620001438251620002ba565b9392505050565b6000601f820183136200015c57600080fd5b8151620001736200016d8262000273565b6200024c565b915080825260208301602083018583830111156200019057600080fd5b6200019d838284620002c7565b50505092915050565b600062000143825162000132565b600080600080600060a08688031215620001cd57600080fd5b6000620001db8888620001a6565b9550506020620001ee8882890162000135565b9450506040620002018882890162000135565b93505060608601516001604060020a038111156200021e57600080fd5b6200022c888289016200014a565b92505060806200023f88828901620001a6565b9150509295509295909350565b6040518181016001604060020a03811182821017156200026b57600080fd5b604052919050565b60006001604060020a038211156200028a57600080fd5b506020601f91909101601f19160190565b6000620002a882620002ae565b92915050565b600160a060020a031690565b6000620002a8826200029b565b60005b83811015620002e4578181015183820152602001620002ca565b83811115620002f4576000848401525b50505050565b61105e806200030a6000396000f3fe6080604052600436106100955763ffffffff60e060020a600035041663031e3c41811461009a5780633c088199146100c5578063430fe9c1146100e757806346e9a9e51461010957806347e46806146101365780635d1ca6311461014b5780636ec461ce1461016057806374b5f01c14610175578063930f407414610195578063c7dd5a68146101aa578063f2e4797e146101ca575b600080fd5b3480156100a657600080fd5b506100af6101ea565b6040516100bc9190610f35565b60405180910390f35b3480156100d157600080fd5b506100da6101f9565b6040516100bc9190610f64565b3480156100f357600080fd5b506100fc6101ff565b6040516100bc9190610f43565b34801561011557600080fd5b50610129610124366004610e39565b610292565b6040516100bc9190610f21565b34801561014257600080fd5b506100fc6102af565b34801561015757600080fd5b506100da610a59565b34801561016c57600080fd5b506100af610a5f565b34801561018157600080fd5b50610129610190366004610e39565b610a6e565b3480156101a157600080fd5b506100fc610a76565b3480156101b657600080fd5b506101296101c5366004610e39565b610b95565b3480156101d657600080fd5b506101296101e5366004610e39565b610bd9565b600054600160a060020a031690565b60045490565b60028054604080516020601f60001961010060018716150201909416859004938401819004810282018101909252828152606093909290918301828280156102885780601f1061025d57610100808354040283529160200191610288565b820191906000526020600020905b81548152906001019060200180831161026b57829003601f168201915b5050505050905090565b60008160045414156102a6575060016102aa565b5060005b919050565b60606102bc600354610c6e565b6102c7600454610c6e565b6102cf610a76565b60008054604080517f15dae03e0000000000000000000000000000000000000000000000000000000081529051600160a060020a03909216926315dae03e92600480840193829003018186803b15801561032857600080fd5b505afa15801561033c573d6000803e3d6000fd5b505050506040513d6000823e601f3d908101601f191682016040526103649190810190610dfc565b60008054604080517f9e0c3ead0000000000000000000000000000000000000000000000000000000081529051600160a060020a0390921692639e0c3ead92600480840193829003018186803b1580156103bd57600080fd5b505afa1580156103d1573d6000803e3d6000fd5b505050506040513d6000823e601f3d908101601f191682016040526103f99190810190610dfc565b600054604080517fdc2fa377000000000000000000000000000000000000000000000000000000008152905161049592600160a060020a03169163dc2fa377916004808301926020929190829003018186803b15801561045857600080fd5b505afa15801561046c573d6000803e3d6000fd5b505050506040513d601f19601f820116820180604052506104909190810190610e57565b610c6e565b600160009054906101000a9004600160a060020a0316600160a060020a03166315dae03e6040518163ffffffff1660e060020a02815260040160006040518083038186803b1580156104e657600080fd5b505afa1580156104fa573d6000803e3d6000fd5b505050506040513d6000823e601f3d908101601f191682016040526105229190810190610dfc565b600160009054906101000a9004600160a060020a0316600160a060020a0316639e0c3ead6040518163ffffffff1660e060020a02815260040160006040518083038186803b15801561057357600080fd5b505afa158015610587573d6000803e3d6000fd5b505050506040513d6000823e601f3d908101601f191682016040526105af9190810190610dfc565b600154604080517fdc2fa377000000000000000000000000000000000000000000000000000000008152905161060e92600160a060020a03169163dc2fa377916004808301926020929190829003018186803b15801561045857600080fd5b60405160200180807f2a2a2a205472616e73616374696f6e204944203a2000000000000000000000008152506015018a805190602001908083835b602083106106685780518252601f199092019160209182019101610649565b51815160209384036101000a60001901801990921691161790527f207c20456e7472616e63652050726f64756374204964203a2000000000000000919093019081528b516019909101928c0191508083835b602083106106d95780518252601f1990920191602091820191016106ba565b51815160209384036101000a60001901801990921691161790527f2c20457869742050726f64756374204964203a20000000000000000000000000919093019081528a516014909101928b0191508083835b6020831061074a5780518252601f19909201916020918201910161072b565b51815160209384036101000a60001901801990921691161790527f207c20466f75726e697373657572203a200000000000000000000000000000009190930190815289516011909101928a0191508083835b602083106107bb5780518252601f19909201916020918201910161079c565b51815160209384036101000a60001901801990921691161790527f2c20000000000000000000000000000000000000000000000000000000000000919093019081528851600290910192890191508083835b6020831061082c5780518252601f19909201916020918201910161080d565b51815160209384036101000a60001901801990921691161790527f2c204244204e756d626572203a20000000000000000000000000000000000000919093019081528751600e90910192880191508083835b6020831061089d5780518252601f19909201916020918201910161087e565b51815160209384036101000a60001901801990921691161790527f207c204163686574657572203a20000000000000000000000000000000000000919093019081528651600e90910192870191508083835b6020831061090e5780518252601f1990920191602091820191016108ef565b51815160209384036101000a60001901801990921691161790527f2c20000000000000000000000000000000000000000000000000000000000000919093019081528551600290910192860191508083835b6020831061097f5780518252601f199092019160209182019101610960565b51815160209384036101000a60001901801990921691161790527f2c204244204e756d626572203a20000000000000000000000000000000000000919093019081528451600e90910192850191508083835b602083106109f05780518252601f1990920191602091820191016109d1565b6001836020036101000a038019825116818451168082178552505050505050905001807f2a2a2a00000000000000000000000000000000000000000000000000000000008152506003019950505050505050505050604051602081830303815290604052905090565b60035490565b600154600160a060020a031690565b600455600090565b60608060005b600554811015610b8f5781610aa9600583815481101515610a9957fe5b9060005260206000200154610c6e565b6040516020018083805190602001908083835b60208310610adb5780518252601f199092019160209182019101610abc565b51815160209384036101000a600019018019909216911617905285519190930192850191508083835b60208310610b235780518252601f199092019160209182019101610b04565b6001836020036101000a038019825116818451168082178552505050505050905001807f2c000000000000000000000000000000000000000000000000000000000000008152506001019250505060405160208183030381529060405291508080600101915050610a7c565b50905090565b600080805b600554811015610bd25783600582815481101515610bb457fe5b90600052602060002001541415610bca57600191505b600101610b9a565b5092915050565b6000610be482610b95565b1515610c2457600580546001810182556000919091527f036b6384b5eca791c62761152d0c79bb0604c104a5fb6f4eb0703f3154bb3db0018290556102aa565b610c2d82610b95565b15156102aa576040517f08c379a0000000000000000000000000000000000000000000000000000000008152600401610c6590610f54565b60405180910390fd5b606081801515610cb357505060408051808201909152600181527f300000000000000000000000000000000000000000000000000000000000000060208201526102aa565b8060005b8115610ccb57600101600a82049150610cb7565b6060816040519080825280601f01601f191660200182016040528015610cf8576020820181803883390190505b50905060001982015b8415610d7f5781516000198201917f01000000000000000000000000000000000000000000000000000000000000006030600a89060102918491908110610d4457fe5b9060200101907effffffffffffffffffffffffffffffffffffffffffffffffffffffffffffff1916908160001a905350600a85049450610d01565b5095945050505050565b6000601f82018313610d9a57600080fd5b8151610dad610da882610f99565b610f72565b91508082526020830160208301858383011115610dc957600080fd5b610dd4838284610fea565b50505092915050565b6000610de98235610fd6565b9392505050565b6000610de98251610fd6565b600060208284031215610e0e57600080fd5b815167ffffffffffffffff811115610e2557600080fd5b610e3184828501610d89565b949350505050565b600060208284031215610e4b57600080fd5b6000610e318484610ddd565b600060208284031215610e6957600080fd5b6000610e318484610df0565b610e7e81610fc5565b82525050565b610e7e81610fd9565b6000610e9882610fc1565b808452610eac816020860160208601610fea565b610eb58161101a565b9093016020019392505050565b602781527f54686973206e756d62657220616c72656164792065786973747320696e20746860208201527f65206c6973742e00000000000000000000000000000000000000000000000000604082015260600190565b610e7e81610fd6565b60208101610f2f8284610e75565b92915050565b60208101610f2f8284610e84565b60208082528101610de98184610e8d565b60208082528101610f2f81610ec2565b60208101610f2f8284610f18565b60405181810167ffffffffffffffff81118282101715610f9157600080fd5b604052919050565b600067ffffffffffffffff821115610fb057600080fd5b506020601f91909101601f19160190565b5190565b151590565b600160a060020a031690565b90565b6000610f2f826000610f2f82610fca565b60005b83811015611005578181015183820152602001610fed565b83811115611014576000848401525b50505050565b601f01601f19169056fea265627a7a72305820c87dcca02f370b71f50af7b10909ada0ee35f34ec99a66d6a9ad231904a61e2c6c6578706572696d656e74616cf5003760806040523480156200001157600080fd5b506040516200163d3803806200163d8339810180604052620000379190810190620001cc565b60078054600160a060020a031916600160a060020a038816179055600085905582516200006c906003906020860190620000a8565b50835162000082906001906020870190620000a8565b50815162000098906002906020850190620000a8565b5060045550620003499350505050565b828054600181600116156101000203166002900490600052602060002090601f016020900481019282601f10620000eb57805160ff19168380011785556200011b565b828001600101855582156200011b579182015b828111156200011b578251825591602001919060010190620000fe565b50620001299291506200012d565b5090565b6200014a91905b8082111562000129576000815560010162000134565b90565b60006200015b825162000303565b9392505050565b6000601f820183136200017457600080fd5b81516200018b6200018582620002cf565b620002a8565b91508082526020830160208301858383011115620001a857600080fd5b620001b583828462000316565b50505092915050565b60006200015b82516200014a565b60008060008060008060c08789031215620001e657600080fd5b6000620001f489896200014d565b96505060206200020789828a01620001be565b95505060408701516001604060020a038111156200022457600080fd5b6200023289828a0162000162565b94505060608701516001604060020a038111156200024f57600080fd5b6200025d89828a0162000162565b93505060808701516001604060020a038111156200027a57600080fd5b6200028889828a0162000162565b92505060a06200029b89828a01620001be565b9150509295509295509295565b6040518181016001604060020a0381118282101715620002c757600080fd5b604052919050565b60006001604060020a03821115620002e657600080fd5b506020601f91909101601f19160190565b600160a060020a031690565b60006200031082620002f7565b92915050565b60005b838110156200033357818101518382015260200162000319565b8381111562000343576000848401525b50505050565b6112e480620003596000396000f3fe6080604052600436106100b95763ffffffff7c010000000000000000000000000000000000000000000000000000000060003504166315dae03e81146100be57806317d7de7c146100e957806347e46806146100fe5780635d1ca631146101135780635e39c06d1461013557806384a9bd55146101575780639e0c3ead14610179578063a46dc6461461018e578063bf6939e3146101ae578063db613e81146101c3578063dc2fa377146101e5578063fb62edb0146101fa575b600080fd5b3480156100ca57600080fd5b506100d361020f565b6040516100e091906111d4565b60405180910390f35b3480156100f557600080fd5b506100d36102a2565b34801561010a57600080fd5b506100d3610302565b34801561011f57600080fd5b506101286105d7565b6040516100e091906111e5565b34801561014157600080fd5b5061015561015036600461108b565b6105dd565b005b34801561016357600080fd5b5061016c61069d565b6040516100e091906111c3565b34801561018557600080fd5b506100d36106fe565b34801561019a57600080fd5b506101556101a936600461108b565b61075f565b3480156101ba57600080fd5b506100d3610820565b3480156101cf57600080fd5b506101d8610e86565b6040516100e091906111af565b3480156101f157600080fd5b50610128610e95565b34801561020657600080fd5b5061016c610e9b565b60028054604080516020601f60001961010060018716150201909416859004938401819004810282018101909252828152606093909290918301828280156102985780601f1061026d57610100808354040283529160200191610298565b820191906000526020600020905b81548152906001019060200180831161027b57829003601f168201915b5050505050905090565b60018054604080516020601f600260001961010087891615020190951694909404938401819004810282018101909252828152606093909290918301828280156102985780601f1061026d57610100808354040283529160200191610298565b606061030f600054610efb565b600160026003610320600454610efb565b60405160200180807f2d2d2d204964203d20000000000000000000000000000000000000000000000081525060090186805190602001908083835b6020831061037a5780518252601f19909201916020918201910161035b565b6001836020036101000a038019825116818451168082178552505050505050905001807f207c2000000000000000000000000000000000000000000000000000000000008152506003018580546001816001161561010002031660029004801561041b5780601f106103f957610100808354040283529182019161041b565b820191906000526020600020905b815481529060010190602001808311610407575b5050807f2c200000000000000000000000000000000000000000000000000000000000008152506002018480546001816001161561010002031660029004801561049c5780601f1061047a57610100808354040283529182019161049c565b820191906000526020600020905b815481529060010190602001808311610488575b5050807f2c200000000000000000000000000000000000000000000000000000000000008152506002018380546001816001161561010002031660029004801561051d5780601f106104fb57610100808354040283529182019161051d565b820191906000526020600020905b815481529060010190602001808311610509575b5050807f207c2044424e756d203a20000000000000000000000000000000000000000000815250600b0182805190602001908083835b602083106105725780518252601f199092019160209182019101610553565b6001836020036101000a038019825116818451168082178552505050505050905001807f202d2d2d0000000000000000000000000000000000000000000000000000000081525060040195505050505050604051602081830303815290604052905090565b60005490565b801561064057600680546001810182556000919091527ff652222313e28459528d920b65115c16c04f3efc82aaedc97be59f3f377c0d3f01805473ffffffffffffffffffffffffffffffffffffffff1916600160a060020a038416179055610699565b600580546001810182556000919091527f036b6384b5eca791c62761152d0c79bb0604c104a5fb6f4eb0703f3154bb3db001805473ffffffffffffffffffffffffffffffffffffffff1916600160a060020a0384161790555b5050565b6060600680548060200260200160405190810160405280929190818152602001828054801561029857602002820191906000526020600020905b8154600160a060020a031681526001909101906020018083116106d7575050505050905090565b60038054604080516020601f60026000196101006001881615020190951694909404938401819004810282018101909252828152606093909290918301828280156102985780601f1061026d57610100808354040283529160200191610298565b80156107c257600580546001810182556000919091527f036b6384b5eca791c62761152d0c79bb0604c104a5fb6f4eb0703f3154bb3db001805473ffffffffffffffffffffffffffffffffffffffff1916600160a060020a038416179055610699565b600680546001810182556000919091527ff652222313e28459528d920b65115c16c04f3efc82aaedc97be59f3f377c0d3f018054600160a060020a03841673ffffffffffffffffffffffffffffffffffffffff199091161790555050565b606080600260405160200180807f506172746e657273206f66200000000000000000000000000000000000000000815250600c01828054600181600116156101000203166002900480156108ab5780601f106108895761010080835404028352918201916108ab565b820191906000526020600020905b815481529060010190602001808311610897575b50507f203a200000000000000000000000000000000000000000000000000000000000815260408051601c1981840301815260039092019052600554909350159150610bb6905057806040516020018082805190602001908083835b602083106109265780518252601f199092019160209182019101610907565b5181516020939093036101000a60001901801990911692169190911790527f2a2a2a20466f75726e69737365757273202d2d3e20000000000000000000000092019182525060408051808303600a1901815260159092019052925060009150505b600554811015610b2357816005828154811015156109a157fe5b6000918252602082200154604080517f47e468060000000000000000000000000000000000000000000000000000000081529051600160a060020a03909216926347e4680692600480840193829003018186803b158015610a0157600080fd5b505afa158015610a15573d6000803e3d6000fd5b505050506040513d6000823e601f3d908101601f19168201604052610a3d91908101906110c5565b6040516020018083805190602001908083835b60208310610a6f5780518252601f199092019160209182019101610a50565b51815160209384036101000a600019018019909216911617905285519190930192850191508083835b60208310610ab75780518252601f199092019160209182019101610a98565b6001836020036101000a038019825116818451168082178552505050505050905001807f0a000000000000000000000000000000000000000000000000000000000000008152506001019250505060405160208183030381529060405291508080600101915050610987565b50806040516020018082805190602001908083835b60208310610b575780518252601f199092019160209182019101610b38565b6001836020036101000a038019825116818451168082178552505050505050905001807f202a2a2a0000000000000000000000000000000000000000000000000000000081525060040191505060405160208183030381529060405290505b60065415610e8157806040516020018082805190602001908083835b60208310610bf15780518252601f199092019160209182019101610bd2565b5181516020939093036101000a60001901801990911692169190911790527f2a2a2a20416368657465757273202d2d3e20000000000000000000000000000092019182525060408051808303600d1901815260129092019052925060009150505b600654811015610dee5781600682815481101515610c6c57fe5b6000918252602082200154604080517f47e468060000000000000000000000000000000000000000000000000000000081529051600160a060020a03909216926347e4680692600480840193829003018186803b158015610ccc57600080fd5b505afa158015610ce0573d6000803e3d6000fd5b505050506040513d6000823e601f3d908101601f19168201604052610d0891908101906110c5565b6040516020018083805190602001908083835b60208310610d3a5780518252601f199092019160209182019101610d1b565b51815160209384036101000a600019018019909216911617905285519190930192850191508083835b60208310610d825780518252601f199092019160209182019101610d63565b6001836020036101000a038019825116818451168082178552505050505050905001807f0a000000000000000000000000000000000000000000000000000000000000008152506001019250505060405160208183030381529060405291508080600101915050610c52565b50806040516020018082805190602001908083835b60208310610e225780518252601f199092019160209182019101610e03565b6001836020036101000a038019825116818451168082178552505050505050905001807f202a2a2a0000000000000000000000000000000000000000000000000000000081525060040191505060405160208183030381529060405290505b905090565b600754600160a060020a031690565b60045490565b6060600580548060200260200160405190810160405280929190818152602001828054801561029857602002820191906000526020600020908154600160a060020a031681526001909101906020018083116106d7575050505050905090565b606081801515610f4057505060408051808201909152600181527f30000000000000000000000000000000000000000000000000000000000000006020820152611013565b8060005b8115610f5857600101600a82049150610f44565b6060816040519080825280601f01601f191660200182016040528015610f85576020820181803883390190505b50905060001982015b841561100c5781516000198201917f01000000000000000000000000000000000000000000000000000000000000006030600a89060102918491908110610fd157fe5b9060200101907effffffffffffffffffffffffffffffffffffffffffffffffffffffffffffff1916908160001a905350600a85049450610f8e565b5093505050505b919050565b60006110248235611260565b9392505050565b60006110248235611265565b6000601f8201831361104857600080fd5b815161105b6110568261121a565b6111f3565b9150808252602083016020830185838301111561107757600080fd5b611082838284611270565b50505092915050565b6000806040838503121561109e57600080fd5b60006110aa858561102b565b92505060206110bb85828601611018565b9150509250929050565b6000602082840312156110d757600080fd5b815167ffffffffffffffff8111156110ee57600080fd5b6110fa84828501611037565b949350505050565b61110b8161124c565b82525050565b600061111c82611248565b80845260208401935061112e83611242565b60005b8281101561115e57611144868351611168565b61114d82611242565b602096909601959150600101611131565b5093949350505050565b61110b81611265565b600061117c82611248565b808452611190816020860160208601611270565b611199816112a0565b9093016020019392505050565b61110b8161125d565b602081016111bd8284611102565b92915050565b602080825281016110248184611111565b602080825281016110248184611171565b602081016111bd82846111a6565b60405181810167ffffffffffffffff8111828210171561121257600080fd5b604052919050565b600067ffffffffffffffff82111561123157600080fd5b506020601f91909101601f19160190565b60200190565b5190565b6000600160a060020a0382166111bd565b90565b151590565b60006111bd8261124c565b60005b8381101561128b578181015183820152602001611273565b8381111561129a576000848401525b50505050565b601f01601f19169056fea265627a7a723058203e060b1de9cdac4f6796c71eb09725b58ce452a0fc7da09f3f44880cb1a5433c6c6578706572696d656e74616cf50037596f75206d75737420626520726567697374657220617320616e206163746f72a265627a7a72305820e73ca6c20d5b7dcf8f6a3d8f515582fe6a047ea272ad726a2fa84bcf2dfa66a96c6578706572696d656e74616cf5003760806040523480156200001157600080fd5b506040516200163d3803806200163d8339810180604052620000379190810190620001cc565b60078054600160a060020a031916600160a060020a038816179055600085905582516200006c906003906020860190620000a8565b50835162000082906001906020870190620000a8565b50815162000098906002906020850190620000a8565b5060045550620003499350505050565b828054600181600116156101000203166002900490600052602060002090601f016020900481019282601f10620000eb57805160ff19168380011785556200011b565b828001600101855582156200011b579182015b828111156200011b578251825591602001919060010190620000fe565b50620001299291506200012d565b5090565b6200014a91905b8082111562000129576000815560010162000134565b90565b60006200015b825162000303565b9392505050565b6000601f820183136200017457600080fd5b81516200018b6200018582620002cf565b620002a8565b91508082526020830160208301858383011115620001a857600080fd5b620001b583828462000316565b50505092915050565b60006200015b82516200014a565b60008060008060008060c08789031215620001e657600080fd5b6000620001f489896200014d565b96505060206200020789828a01620001be565b95505060408701516001604060020a038111156200022457600080fd5b6200023289828a0162000162565b94505060608701516001604060020a038111156200024f57600080fd5b6200025d89828a0162000162565b93505060808701516001604060020a038111156200027a57600080fd5b6200028889828a0162000162565b92505060a06200029b89828a01620001be565b9150509295509295509295565b6040518181016001604060020a0381118282101715620002c757600080fd5b604052919050565b60006001604060020a03821115620002e657600080fd5b506020601f91909101601f19160190565b600160a060020a031690565b60006200031082620002f7565b92915050565b60005b838110156200033357818101518382015260200162000319565b8381111562000343576000848401525b50505050565b6112e480620003596000396000f3fe6080604052600436106100b95763ffffffff7c010000000000000000000000000000000000000000000000000000000060003504166315dae03e81146100be57806317d7de7c146100e957806347e46806146100fe5780635d1ca631146101135780635e39c06d1461013557806384a9bd55146101575780639e0c3ead14610179578063a46dc6461461018e578063bf6939e3146101ae578063db613e81146101c3578063dc2fa377146101e5578063fb62edb0146101fa575b600080fd5b3480156100ca57600080fd5b506100d361020f565b6040516100e091906111d4565b60405180910390f35b3480156100f557600080fd5b506100d36102a2565b34801561010a57600080fd5b506100d3610302565b34801561011f57600080fd5b506101286105d7565b6040516100e091906111e5565b34801561014157600080fd5b5061015561015036600461108b565b6105dd565b005b34801561016357600080fd5b5061016c61069d565b6040516100e091906111c3565b34801561018557600080fd5b506100d36106fe565b34801561019a57600080fd5b506101556101a936600461108b565b61075f565b3480156101ba57600080fd5b506100d3610820565b3480156101cf57600080fd5b506101d8610e86565b6040516100e091906111af565b3480156101f157600080fd5b50610128610e95565b34801561020657600080fd5b5061016c610e9b565b60028054604080516020601f60001961010060018716150201909416859004938401819004810282018101909252828152606093909290918301828280156102985780601f1061026d57610100808354040283529160200191610298565b820191906000526020600020905b81548152906001019060200180831161027b57829003601f168201915b5050505050905090565b60018054604080516020601f600260001961010087891615020190951694909404938401819004810282018101909252828152606093909290918301828280156102985780601f1061026d57610100808354040283529160200191610298565b606061030f600054610efb565b600160026003610320600454610efb565b60405160200180807f2d2d2d204964203d20000000000000000000000000000000000000000000000081525060090186805190602001908083835b6020831061037a5780518252601f19909201916020918201910161035b565b6001836020036101000a038019825116818451168082178552505050505050905001807f207c2000000000000000000000000000000000000000000000000000000000008152506003018580546001816001161561010002031660029004801561041b5780601f106103f957610100808354040283529182019161041b565b820191906000526020600020905b815481529060010190602001808311610407575b5050807f2c200000000000000000000000000000000000000000000000000000000000008152506002018480546001816001161561010002031660029004801561049c5780601f1061047a57610100808354040283529182019161049c565b820191906000526020600020905b815481529060010190602001808311610488575b5050807f2c200000000000000000000000000000000000000000000000000000000000008152506002018380546001816001161561010002031660029004801561051d5780601f106104fb57610100808354040283529182019161051d565b820191906000526020600020905b815481529060010190602001808311610509575b5050807f207c2044424e756d203a20000000000000000000000000000000000000000000815250600b0182805190602001908083835b602083106105725780518252601f199092019160209182019101610553565b6001836020036101000a038019825116818451168082178552505050505050905001807f202d2d2d0000000000000000000000000000000000000000000000000000000081525060040195505050505050604051602081830303815290604052905090565b60005490565b801561064057600680546001810182556000919091527ff652222313e28459528d920b65115c16c04f3efc82aaedc97be59f3f377c0d3f01805473ffffffffffffffffffffffffffffffffffffffff1916600160a060020a038416179055610699565b600580546001810182556000919091527f036b6384b5eca791c62761152d0c79bb0604c104a5fb6f4eb0703f3154bb3db001805473ffffffffffffffffffffffffffffffffffffffff1916600160a060020a0384161790555b5050565b6060600680548060200260200160405190810160405280929190818152602001828054801561029857602002820191906000526020600020905b8154600160a060020a031681526001909101906020018083116106d7575050505050905090565b60038054604080516020601f60026000196101006001881615020190951694909404938401819004810282018101909252828152606093909290918301828280156102985780601f1061026d57610100808354040283529160200191610298565b80156107c257600580546001810182556000919091527f036b6384b5eca791c62761152d0c79bb0604c104a5fb6f4eb0703f3154bb3db001805473ffffffffffffffffffffffffffffffffffffffff1916600160a060020a038416179055610699565b600680546001810182556000919091527ff652222313e28459528d920b65115c16c04f3efc82aaedc97be59f3f377c0d3f018054600160a060020a03841673ffffffffffffffffffffffffffffffffffffffff199091161790555050565b606080600260405160200180807f506172746e657273206f66200000000000000000000000000000000000000000815250600c01828054600181600116156101000203166002900480156108ab5780601f106108895761010080835404028352918201916108ab565b820191906000526020600020905b815481529060010190602001808311610897575b50507f203a200000000000000000000000000000000000000000000000000000000000815260408051601c1981840301815260039092019052600554909350159150610bb6905057806040516020018082805190602001908083835b602083106109265780518252601f199092019160209182019101610907565b5181516020939093036101000a60001901801990911692169190911790527f2a2a2a20466f75726e69737365757273202d2d3e20000000000000000000000092019182525060408051808303600a1901815260159092019052925060009150505b600554811015610b2357816005828154811015156109a157fe5b6000918252602082200154604080517f47e468060000000000000000000000000000000000000000000000000000000081529051600160a060020a03909216926347e4680692600480840193829003018186803b158015610a0157600080fd5b505afa158015610a15573d6000803e3d6000fd5b505050506040513d6000823e601f3d908101601f19168201604052610a3d91908101906110c5565b6040516020018083805190602001908083835b60208310610a6f5780518252601f199092019160209182019101610a50565b51815160209384036101000a600019018019909216911617905285519190930192850191508083835b60208310610ab75780518252601f199092019160209182019101610a98565b6001836020036101000a038019825116818451168082178552505050505050905001807f0a000000000000000000000000000000000000000000000000000000000000008152506001019250505060405160208183030381529060405291508080600101915050610987565b50806040516020018082805190602001908083835b60208310610b575780518252601f199092019160209182019101610b38565b6001836020036101000a038019825116818451168082178552505050505050905001807f202a2a2a0000000000000000000000000000000000000000000000000000000081525060040191505060405160208183030381529060405290505b60065415610e8157806040516020018082805190602001908083835b60208310610bf15780518252601f199092019160209182019101610bd2565b5181516020939093036101000a60001901801990911692169190911790527f2a2a2a20416368657465757273202d2d3e20000000000000000000000000000092019182525060408051808303600d1901815260129092019052925060009150505b600654811015610dee5781600682815481101515610c6c57fe5b6000918252602082200154604080517f47e468060000000000000000000000000000000000000000000000000000000081529051600160a060020a03909216926347e4680692600480840193829003018186803b158015610ccc57600080fd5b505afa158015610ce0573d6000803e3d6000fd5b505050506040513d6000823e601f3d908101601f19168201604052610d0891908101906110c5565b6040516020018083805190602001908083835b60208310610d3a5780518252601f199092019160209182019101610d1b565b51815160209384036101000a600019018019909216911617905285519190930192850191508083835b60208310610d825780518252601f199092019160209182019101610d63565b6001836020036101000a038019825116818451168082178552505050505050905001807f0a000000000000000000000000000000000000000000000000000000000000008152506001019250505060405160208183030381529060405291508080600101915050610c52565b50806040516020018082805190602001908083835b60208310610e225780518252601f199092019160209182019101610e03565b6001836020036101000a038019825116818451168082178552505050505050905001807f202a2a2a0000000000000000000000000000000000000000000000000000000081525060040191505060405160208183030381529060405290505b905090565b600754600160a060020a031690565b60045490565b6060600580548060200260200160405190810160405280929190818152602001828054801561029857602002820191906000526020600020908154600160a060020a031681526001909101906020018083116106d7575050505050905090565b606081801515610f4057505060408051808201909152600181527f30000000000000000000000000000000000000000000000000000000000000006020820152611013565b8060005b8115610f5857600101600a82049150610f44565b6060816040519080825280601f01601f191660200182016040528015610f85576020820181803883390190505b50905060001982015b841561100c5781516000198201917f01000000000000000000000000000000000000000000000000000000000000006030600a89060102918491908110610fd157fe5b9060200101907effffffffffffffffffffffffffffffffffffffffffffffffffffffffffffff1916908160001a905350600a85049450610f8e565b5093505050505b919050565b60006110248235611260565b9392505050565b60006110248235611265565b6000601f8201831361104857600080fd5b815161105b6110568261121a565b6111f3565b9150808252602083016020830185838301111561107757600080fd5b611082838284611270565b50505092915050565b6000806040838503121561109e57600080fd5b60006110aa858561102b565b92505060206110bb85828601611018565b9150509250929050565b6000602082840312156110d757600080fd5b815167ffffffffffffffff8111156110ee57600080fd5b6110fa84828501611037565b949350505050565b61110b8161124c565b82525050565b600061111c82611248565b80845260208401935061112e83611242565b60005b8281101561115e57611144868351611168565b61114d82611242565b602096909601959150600101611131565b5093949350505050565b61110b81611265565b600061117c82611248565b808452611190816020860160208601611270565b611199816112a0565b9093016020019392505050565b61110b8161125d565b602081016111bd8284611102565b92915050565b602080825281016110248184611111565b602080825281016110248184611171565b602081016111bd82846111a6565b60405181810167ffffffffffffffff8111828210171561121257600080fd5b604052919050565b600067ffffffffffffffff82111561123157600080fd5b506020601f91909101601f19160190565b60200190565b5190565b6000600160a060020a0382166111bd565b90565b151590565b60006111bd8261124c565b60005b8381101561128b578181015183820152602001611273565b8381111561129a576000848401525b50505050565b601f01601f19169056fea265627a7a723058203e060b1de9cdac4f6796c71eb09725b58ce452a0fc7da09f3f44880cb1a5433c6c6578706572696d656e74616cf5003760806040523480156200001157600080fd5b5060405162001368380380620013688339810180604052620000379190810190620001b4565b600385905560008054600160a060020a03808716600160a060020a031992831617909255600180549286169290911691909117905581516200008190600290602085019062000090565b5060045550620002fa92505050565b828054600181600116156101000203166002900490600052602060002090601f016020900481019282601f10620000d357805160ff191683800117855562000103565b8280016001018555821562000103579182015b8281111562000103578251825591602001919060010190620000e6565b506200011192915062000115565b5090565b6200013291905b808211156200011157600081556001016200011c565b90565b6000620001438251620002ba565b9392505050565b6000601f820183136200015c57600080fd5b8151620001736200016d8262000273565b6200024c565b915080825260208301602083018583830111156200019057600080fd5b6200019d838284620002c7565b50505092915050565b600062000143825162000132565b600080600080600060a08688031215620001cd57600080fd5b6000620001db8888620001a6565b9550506020620001ee8882890162000135565b9450506040620002018882890162000135565b93505060608601516001604060020a038111156200021e57600080fd5b6200022c888289016200014a565b92505060806200023f88828901620001a6565b9150509295509295909350565b6040518181016001604060020a03811182821017156200026b57600080fd5b604052919050565b60006001604060020a038211156200028a57600080fd5b506020601f91909101601f19160190565b6000620002a882620002ae565b92915050565b600160a060020a031690565b6000620002a8826200029b565b60005b83811015620002e4578181015183820152602001620002ca565b83811115620002f4576000848401525b50505050565b61105e806200030a6000396000f3fe6080604052600436106100955763ffffffff60e060020a600035041663031e3c41811461009a5780633c088199146100c5578063430fe9c1146100e757806346e9a9e51461010957806347e46806146101365780635d1ca6311461014b5780636ec461ce1461016057806374b5f01c14610175578063930f407414610195578063c7dd5a68146101aa578063f2e4797e146101ca575b600080fd5b3480156100a657600080fd5b506100af6101ea565b6040516100bc9190610f35565b60405180910390f35b3480156100d157600080fd5b506100da6101f9565b6040516100bc9190610f64565b3480156100f357600080fd5b506100fc6101ff565b6040516100bc9190610f43565b34801561011557600080fd5b50610129610124366004610e39565b610292565b6040516100bc9190610f21565b34801561014257600080fd5b506100fc6102af565b34801561015757600080fd5b506100da610a59565b34801561016c57600080fd5b506100af610a5f565b34801561018157600080fd5b50610129610190366004610e39565b610a6e565b3480156101a157600080fd5b506100fc610a76565b3480156101b657600080fd5b506101296101c5366004610e39565b610b95565b3480156101d657600080fd5b506101296101e5366004610e39565b610bd9565b600054600160a060020a031690565b60045490565b60028054604080516020601f60001961010060018716150201909416859004938401819004810282018101909252828152606093909290918301828280156102885780601f1061025d57610100808354040283529160200191610288565b820191906000526020600020905b81548152906001019060200180831161026b57829003601f168201915b5050505050905090565b60008160045414156102a6575060016102aa565b5060005b919050565b60606102bc600354610c6e565b6102c7600454610c6e565b6102cf610a76565b60008054604080517f15dae03e0000000000000000000000000000000000000000000000000000000081529051600160a060020a03909216926315dae03e92600480840193829003018186803b15801561032857600080fd5b505afa15801561033c573d6000803e3d6000fd5b505050506040513d6000823e601f3d908101601f191682016040526103649190810190610dfc565b60008054604080517f9e0c3ead0000000000000000000000000000000000000000000000000000000081529051600160a060020a0390921692639e0c3ead92600480840193829003018186803b1580156103bd57600080fd5b505afa1580156103d1573d6000803e3d6000fd5b505050506040513d6000823e601f3d908101601f191682016040526103f99190810190610dfc565b600054604080517fdc2fa377000000000000000000000000000000000000000000000000000000008152905161049592600160a060020a03169163dc2fa377916004808301926020929190829003018186803b15801561045857600080fd5b505afa15801561046c573d6000803e3d6000fd5b505050506040513d601f19601f820116820180604052506104909190810190610e57565b610c6e565b600160009054906101000a9004600160a060020a0316600160a060020a03166315dae03e6040518163ffffffff1660e060020a02815260040160006040518083038186803b1580156104e657600080fd5b505afa1580156104fa573d6000803e3d6000fd5b505050506040513d6000823e601f3d908101601f191682016040526105229190810190610dfc565b600160009054906101000a9004600160a060020a0316600160a060020a0316639e0c3ead6040518163ffffffff1660e060020a02815260040160006040518083038186803b15801561057357600080fd5b505afa158015610587573d6000803e3d6000fd5b505050506040513d6000823e601f3d908101601f191682016040526105af9190810190610dfc565b600154604080517fdc2fa377000000000000000000000000000000000000000000000000000000008152905161060e92600160a060020a03169163dc2fa377916004808301926020929190829003018186803b15801561045857600080fd5b60405160200180807f2a2a2a205472616e73616374696f6e204944203a2000000000000000000000008152506015018a805190602001908083835b602083106106685780518252601f199092019160209182019101610649565b51815160209384036101000a60001901801990921691161790527f207c20456e7472616e63652050726f64756374204964203a2000000000000000919093019081528b516019909101928c0191508083835b602083106106d95780518252601f1990920191602091820191016106ba565b51815160209384036101000a60001901801990921691161790527f2c20457869742050726f64756374204964203a20000000000000000000000000919093019081528a516014909101928b0191508083835b6020831061074a5780518252601f19909201916020918201910161072b565b51815160209384036101000a60001901801990921691161790527f207c20466f75726e697373657572203a200000000000000000000000000000009190930190815289516011909101928a0191508083835b602083106107bb5780518252601f19909201916020918201910161079c565b51815160209384036101000a60001901801990921691161790527f2c20000000000000000000000000000000000000000000000000000000000000919093019081528851600290910192890191508083835b6020831061082c5780518252601f19909201916020918201910161080d565b51815160209384036101000a60001901801990921691161790527f2c204244204e756d626572203a20000000000000000000000000000000000000919093019081528751600e90910192880191508083835b6020831061089d5780518252601f19909201916020918201910161087e565b51815160209384036101000a60001901801990921691161790527f207c204163686574657572203a20000000000000000000000000000000000000919093019081528651600e90910192870191508083835b6020831061090e5780518252601f1990920191602091820191016108ef565b51815160209384036101000a60001901801990921691161790527f2c20000000000000000000000000000000000000000000000000000000000000919093019081528551600290910192860191508083835b6020831061097f5780518252601f199092019160209182019101610960565b51815160209384036101000a60001901801990921691161790527f2c204244204e756d626572203a20000000000000000000000000000000000000919093019081528451600e90910192850191508083835b602083106109f05780518252601f1990920191602091820191016109d1565b6001836020036101000a038019825116818451168082178552505050505050905001807f2a2a2a00000000000000000000000000000000000000000000000000000000008152506003019950505050505050505050604051602081830303815290604052905090565b60035490565b600154600160a060020a031690565b600455600090565b60608060005b600554811015610b8f5781610aa9600583815481101515610a9957fe5b9060005260206000200154610c6e565b6040516020018083805190602001908083835b60208310610adb5780518252601f199092019160209182019101610abc565b51815160209384036101000a600019018019909216911617905285519190930192850191508083835b60208310610b235780518252601f199092019160209182019101610b04565b6001836020036101000a038019825116818451168082178552505050505050905001807f2c000000000000000000000000000000000000000000000000000000000000008152506001019250505060405160208183030381529060405291508080600101915050610a7c565b50905090565b600080805b600554811015610bd25783600582815481101515610bb457fe5b90600052602060002001541415610bca57600191505b600101610b9a565b5092915050565b6000610be482610b95565b1515610c2457600580546001810182556000919091527f036b6384b5eca791c62761152d0c79bb0604c104a5fb6f4eb0703f3154bb3db0018290556102aa565b610c2d82610b95565b15156102aa576040517f08c379a0000000000000000000000000000000000000000000000000000000008152600401610c6590610f54565b60405180910390fd5b606081801515610cb357505060408051808201909152600181527f300000000000000000000000000000000000000000000000000000000000000060208201526102aa565b8060005b8115610ccb57600101600a82049150610cb7565b6060816040519080825280601f01601f191660200182016040528015610cf8576020820181803883390190505b50905060001982015b8415610d7f5781516000198201917f01000000000000000000000000000000000000000000000000000000000000006030600a89060102918491908110610d4457fe5b9060200101907effffffffffffffffffffffffffffffffffffffffffffffffffffffffffffff1916908160001a905350600a85049450610d01565b5095945050505050565b6000601f82018313610d9a57600080fd5b8151610dad610da882610f99565b610f72565b91508082526020830160208301858383011115610dc957600080fd5b610dd4838284610fea565b50505092915050565b6000610de98235610fd6565b9392505050565b6000610de98251610fd6565b600060208284031215610e0e57600080fd5b815167ffffffffffffffff811115610e2557600080fd5b610e3184828501610d89565b949350505050565b600060208284031215610e4b57600080fd5b6000610e318484610ddd565b600060208284031215610e6957600080fd5b6000610e318484610df0565b610e7e81610fc5565b82525050565b610e7e81610fd9565b6000610e9882610fc1565b808452610eac816020860160208601610fea565b610eb58161101a565b9093016020019392505050565b602781527f54686973206e756d62657220616c72656164792065786973747320696e20746860208201527f65206c6973742e00000000000000000000000000000000000000000000000000604082015260600190565b610e7e81610fd6565b60208101610f2f8284610e75565b92915050565b60208101610f2f8284610e84565b60208082528101610de98184610e8d565b60208082528101610f2f81610ec2565b60208101610f2f8284610f18565b60405181810167ffffffffffffffff81118282101715610f9157600080fd5b604052919050565b600067ffffffffffffffff821115610fb057600080fd5b506020601f91909101601f19160190565b5190565b151590565b600160a060020a031690565b90565b6000610f2f826000610f2f82610fca565b60005b83811015611005578181015183820152602001610fed565b83811115611014576000848401525b50505050565b601f01601f19169056fea265627a7a72305820c87dcca02f370b71f50af7b10909ada0ee35f34ec99a66d6a9ad231904a61e2c6c6578706572696d656e74616cf50037b10e2d527612073b26eecdfd717e6a320cf44b4afac2b0732d9fcbe2b7fa0cf6",
  "source": "pragma solidity ^0.5.0;\r\n\r\npragma experimental ABIEncoderV2;\r\n\r\n// the Ether unit assumed for the contract is wei\r\ncontract plateformPSAT {\r\n    actor[] actors;\r\n    transaction[] tabTransact;\r\n\r\n    mapping(uint => transaction) suiviIdProduct;    // idProduct with its transaction\r\n\r\n    struct partnershipProposal {\r\n        uint id;\r\n  \t\tactor asker;\r\n  \t\tactor needToAccept;\r\n  \t\tbool isAccepted;\r\n  \t\tbool askerIsFournisseur;\r\n\t}\r\n\r\n    mapping(address => partnershipProposal[]) listPartnershipProposals;       // current balances\r\n\r\n    uint nbActor = 0;\r\n    uint nbTransac = 0;\r\n    uint nbPartnershipProposal = 0;\r\n\r\n    constructor() public{\r\n      actors.push(new actor(0xb1b890aE2292c878b16bC11a652da1255d7E2a61, nbActor++, \"Albert\", \"United States\", \"Cotton Woods\", 12));\r\n      actors.push(new actor(0x7CDeD932Cc982E81A0E1914dEEAfa7C602bcCabE, nbActor++, \"Bernard\", \"Chine\", \"AB Farmer\", 64));\r\n      actors.push(new actor(0x50D6b8739caEe5Fe1DFC7b3bf939e2390A08bc41, nbActor++, \"Cathy\", \"Canada\", \"AC Farmer\", 50));\r\n      actors.push(new actor(0x9B40eCBc96f5fde9E498D6183f156AEbB0a0D361, nbActor++, \"Arnold\", \"India\", \"UA Factory\", 78));\r\n      actors.push(new actor(0xCb8F292C0799379b9D24b681DFe173854FCe83a9, nbActor++, \"Baptiste\", \"Bangladesh\", \"UB Factory\", 92));\r\n      actors.push(new actor(0x316f3ebbBe6011072A361E6Fb2D0F49c99DC91a9, nbActor++, \"Carnold\", \"Chine\", \"UC Factory\", 242));\r\n      actors.push(new actor(0xb4a73Aff3C51e014920219619DfA295c2CAd61Fc, nbActor++, \"Ashley\", \"France\", \"MA Shop\", 678));\r\n      actors.push(new actor(0x2CC30A061B4719B4f91359cb826B31C9FE18761F, nbActor++, \"Barnabe\", \"Birmanie\", \"MB Shop\", 89));\r\n      actors.push(new actor(0x65C087d9Ef1Fc3DBBD18EE525Dfd9e5E05aAAa48, nbActor++, \"Candice\", \"Coree\", \"MC Shop\", 82));\r\n\r\n      actor _actorAA = actors[0];\r\n      actor _actorAB = actors[1];\r\n      actor _actorAC = actors[2];\r\n      actor _actorUA = actors[3];\r\n      actor _actorUB = actors[4];\r\n      actor _actorUC = actors[5];\r\n      actor _actorMA = actors[6];\r\n      actor _actorMB = actors[7];\r\n      actor _actorMC = actors[8];\r\n\r\n      //partnership between farmer  and factory\r\n      _actorAA.acceptPartnership(_actorUA, false);\r\n      _actorUA.acceptPartnership(_actorAA, true);\r\n      _actorAA.acceptPartnership(_actorUC, false);\r\n      _actorUC.acceptPartnership(_actorAA, true);\r\n      _actorAB.acceptPartnership(_actorUB, false);\r\n      _actorUB.acceptPartnership(_actorAB, true);\r\n      _actorAB.acceptPartnership(_actorUC, false);\r\n      _actorUC.acceptPartnership(_actorAB, true);\r\n      _actorAC.acceptPartnership(_actorUC, false);\r\n      _actorUC.acceptPartnership(_actorAC, true);\r\n\r\n      //partnership between factory and factory\r\n      _actorUC.acceptPartnership(_actorUB, false);\r\n      _actorUB.acceptPartnership(_actorUC, true);\r\n\r\n      //partnership between factory and shop\r\n      _actorUA.acceptPartnership(_actorMA, false);\r\n      _actorMA.acceptPartnership(_actorUA, true);\r\n      _actorUA.acceptPartnership(_actorMB, false);\r\n      _actorMB.acceptPartnership(_actorUA, true);\r\n      _actorUB.acceptPartnership(_actorMB, false);\r\n      _actorMB.acceptPartnership(_actorUB, true);\r\n      _actorUC.acceptPartnership(_actorMB, false);\r\n      _actorMB.acceptPartnership(_actorUC, true);\r\n      _actorUC.acceptPartnership(_actorMC, false);\r\n      _actorMC.acceptPartnership(_actorUC, true);\r\n\r\n      transaction t1 = new transaction(nbTransac++, _actorAA, _actorUA, \"26/01/2021\", 67);\r\n      t1.addProductExitId(59);\r\n      suiviIdProduct[59] = t1;\r\n      tabTransact.push(t1);\r\n      transaction t2 = new transaction(nbTransac++, _actorUA, _actorMA, \"26/01/2021\", 59);\r\n      t2.addProductExitId(152);\r\n      suiviIdProduct[152] = t2;\r\n      tabTransact.push(t2);\r\n      transaction t3 = new transaction(nbTransac++, _actorAB, _actorUC, \"26/01/2021\", 794);\r\n      t3.addProductExitId(12);\r\n      suiviIdProduct[12] = t3;\r\n      tabTransact.push(t3);\r\n      transaction t4 = new transaction(nbTransac++, _actorUC, _actorUB, \"26/01/2021\", 12);\r\n      t4.addProductExitId(48);\r\n      suiviIdProduct[48] = t4;\r\n      tabTransact.push(t4);\r\n      transaction t5 = new transaction(nbTransac++, _actorUB, _actorMB, \"26/01/2021\", 48);\r\n      t5.addProductExitId(846);\r\n      suiviIdProduct[846] = t5;\r\n      tabTransact.push(t5);\r\n    }\r\n\r\n    //Practical Functions\r\n\r\n  /*  function initializationActors2() public {\r\n      actors.push(new actor(0xc89E4585AAD8990FC4aA476F9A036d3ab50d5252, nbActor++, \"Ashley\", \"Afghanistan\", \"MA Shop\", 62));\r\n      actors.push(new actor(0x2617bd9454f77520326aE9FE246A8C6D96cbCB55, nbActor++, \"Barnabe\", \"Birmanie\", \"MB Shop\", 89));\r\n      actors.push(new actor(0xB013b170577Fe449D6144B968aC8422187d23dd4, nbActor++, \"Candice\", \"Coree\", \"MC Shop\", 82));\r\n      actors.push(new actor(0x6bbA6cb813d3Dbd9030033a52959Ef210ecfe473, nbActor++, \"Baptiste\", \"Bangladesh\", \"UB Factory\", 92));\r\n    }\r\n\r\n    function initializationActors1() public{\r\n      actors.push(new actor(0xb4d09FAec06396A517F4FB055f9eCDC9C4265FD7, nbActor++, \"Albert\", \"United States\", \"AA Farmer\", 42));\r\n      actors.push(new actor(0xBcE4eeE6946662c3693484B094d41859B1e3D1F0, nbActor++, \"Bernard\", \"Bolivie\", \"AB Farmer\", 4));\r\n      actors.push(new actor(0x317F80619942184996834f70CEca21bdA4b0DCAE, nbActor++, \"Cathy\", \"Canada\", \"AC Farmer\", 50));\r\n      actors.push(new actor(0x028974Cf87177FA318cFd122d36B32728410419B, nbActor++, \"Arnold\", \"Armenie\", \"UA Factory\", 142));\r\n      actors.push(new actor(0x29900e5455373c1E38f8bB436A4fD893FBeb1303, nbActor++, \"Carnold\", \"Chine\", \"UC Factory\", 242));\r\n    }\r\n\r\n    function initializationPartnerShips1() public {\r\n        actor _actorAA = actors[0];\r\n        actor _actorAB = actors[1];\r\n        actor _actorAC = actors[2];\r\n        actor _actorUA = actors[3];\r\n        actor _actorUB = actors[4];\r\n        actor _actorUC = actors[5];\r\n\r\n        //partnership between farmer  and factory\r\n        _actorAA.acceptPartnership(_actorUA, false);\r\n        _actorUA.acceptPartnership(_actorAA, true);\r\n        _actorAA.acceptPartnership(_actorUC, false);\r\n        _actorUC.acceptPartnership(_actorAA, true);\r\n        _actorAB.acceptPartnership(_actorUB, false);\r\n        _actorUB.acceptPartnership(_actorAB, true);\r\n        _actorAB.acceptPartnership(_actorUC, false);\r\n        _actorUC.acceptPartnership(_actorAB, true);\r\n        _actorAC.acceptPartnership(_actorUC, false);\r\n        _actorUC.acceptPartnership(_actorAC, true);\r\n\r\n    }\r\n\r\n    function initializationPartnerShips2() public{\r\n         actor _actorUA = actors[3];\r\n         actor _actorUB = actors[4];\r\n         actor _actorUC = actors[5];\r\n         actor _actorMA = actors[6];\r\n         actor _actorMB = actors[7];\r\n         actor _actorMC = actors[8];\r\n\r\n         //partnership between factory and factory\r\n         _actorUC.acceptPartnership(_actorUB, false);\r\n         _actorUB.acceptPartnership(_actorUC, true);\r\n\r\n         //partnership between factory and shop\r\n         _actorUA.acceptPartnership(_actorMA, false);\r\n         _actorMA.acceptPartnership(_actorUA, true);\r\n         _actorUA.acceptPartnership(_actorMB, false);\r\n         _actorMB.acceptPartnership(_actorUA, true);\r\n         _actorUB.acceptPartnership(_actorMB, false);\r\n         _actorMB.acceptPartnership(_actorUB, true);\r\n         _actorUC.acceptPartnership(_actorMB, false);\r\n         _actorMB.acceptPartnership(_actorUC, true);\r\n         _actorUC.acceptPartnership(_actorMC, false);\r\n         _actorMC.acceptPartnership(_actorUC, true);\r\n    }\r\n\r\n    function initializationTransactions() public {\r\n        actor _actorAA = actors[0];\r\n        actor _actorAB = actors[1];\r\n        actor _actorUA = actors[3];\r\n        actor _actorUB = actors[4];\r\n        actor _actorUC = actors[5];\r\n        actor _actorMA = actors[6];\r\n        actor _actorMB = actors[7];\r\n        transaction t1 = new transaction(nbTransac++, _actorAA, _actorUA, \"26/01/2021\", 67);\r\n        t1.addProductExitId(59);\r\n        suiviIdProduct[59] = t1;\r\n        tabTransact.push(t1);\r\n        transaction t2 = new transaction(nbTransac++, _actorUA, _actorMA, \"26/01/2021\", 59);\r\n        t2.addProductExitId(152);\r\n        suiviIdProduct[152] = t2;\r\n        tabTransact.push(t2);\r\n        transaction t3 = new transaction(nbTransac++, _actorAB, _actorUC, \"26/01/2021\", 794);\r\n        t3.addProductExitId(12);\r\n        suiviIdProduct[12] = t3;\r\n        tabTransact.push(t3);\r\n        transaction t4 = new transaction(nbTransac++, _actorUC, _actorUB, \"26/01/2021\", 12);\r\n        t4.addProductExitId(48);\r\n        suiviIdProduct[48] = t4;\r\n        tabTransact.push(t4);\r\n        transaction t5 = new transaction(nbTransac++, _actorUB, _actorMB, \"26/01/2021\", 48);\r\n        t5.addProductExitId(846);\r\n        suiviIdProduct[846] = t5;\r\n        tabTransact.push(t5);\r\n    }*/\r\n\r\n        //Adding an actor to the list\r\n    function addActor(string memory _name, string memory _typeAct, string memory _country, uint256 _dbNum) public {\r\n        //Check if actor already exists\r\n        require(!isActor(msg.sender), \"The user is already register.\");\r\n        //Adding  actor to the list\r\n        actors.push(new actor(msg.sender, nbActor++, _name, _country, _typeAct, _dbNum));\r\n    }\r\n\r\n        //Creates a partnership proposal betwenn calling actor and actor with id in parameter\r\n    function proposePartnership(uint actorId, bool isFournisseur) public {\r\n        //find actors in list\r\n        require(isActor(msg.sender), \"You must be register as an actor to propose partnership.\");\r\n        require(isActor(actorId), \"The actor id you want to partnership with is not valid.\");\r\n\r\n        actor askPartnership;\r\n        actor isAskPartnership;\r\n\r\n        (askPartnership, isAskPartnership) = findActorsInList(msg.sender, actorId);\r\n\r\n        require(askPartnership != isAskPartnership, \"You can't make partnership with yourself.\");\r\n\r\n        //proposePartnership\r\n        listPartnershipProposals[isAskPartnership.getAccount()].push(partnershipProposal(nbPartnershipProposal++, askPartnership, isAskPartnership, false, isFournisseur));\r\n    }\r\n\r\n        //Actor accepts partnership, the partnership is installed\r\n    function acceptPartnership(uint partnershipId) public{\r\n        require(isActor(msg.sender), \"You must be register as an actor to accept a partnership propositions.\");\r\n        partnershipProposal memory _acceptedProposal;\r\n        bool proposalValid;\r\n        (_acceptedProposal, proposalValid) = getAcceptedPartnershipProposal(partnershipId);\r\n        require(proposalValid, \"Your partnership id is not valid.\");\r\n        actor _actorAccepts = _acceptedProposal.needToAccept;\r\n        actor _actorIsAccepted = _acceptedProposal.asker;\r\n        require(_actorAccepts.getAccount() == msg.sender, \"You can accept the proposal only if it was ask to you.\");\r\n        require(_acceptedProposal.isAccepted == true, \"The proposition was already accepted.\");\r\n        _actorAccepts.acceptPartnership(_actorIsAccepted, _acceptedProposal.askerIsFournisseur);\r\n        _actorIsAccepted.partnershipProposalAccepted(_actorAccepts, _acceptedProposal.askerIsFournisseur);\r\n    }\r\n\r\n    function createTransaction(uint _partnerId, string memory _date, uint _entranceProductId) public {\r\n        require(isActor(msg.sender), \"You must be an actor to create a transaction.\");\r\n        require(isActor(_partnerId), \"The id of your partner is not valid.\");\r\n    //marche pas    require(isProductIdUnique(_entranceProductId), \"The product id must unique, this one is already use\");\r\n        //require que les 2 acteurs soient partenaires\r\n        actor _a1 = getActor(msg.sender);\r\n        actor _a2 = getActor(_partnerId);\r\n        require(_a1 != _a2, \"You can't transact with yourself.\");\r\n        tabTransact.push(new transaction(nbTransac++, _a1, _a2, _date, _entranceProductId));\r\n    }\r\n\r\n    function addProductExitIdToTransaction(uint _transactionId, uint _productExitId) public{\r\n        require(isProductIdUnique(_productExitId), \"The product id must unique, this one is already use\");\r\n        bool valid;\r\n        transaction _t;\r\n        (valid, _t) = getTransaction(_transactionId);\r\n        require(valid, \"The id of your transaction is not valid.\");\r\n        _t.addProductExitId(_productExitId);\r\n        suiviIdProduct[_productExitId] = _t;\r\n    }\r\n\r\n    function getProductHistory(uint _productId) public view returns (string memory){\r\n        string memory res = \"\";\r\n        transaction _t = suiviIdProduct[_productId];\r\n        if(!(address(_t) == 0x0000000000000000000000000000000000000000)){\r\n            res = string(abi.encodePacked(res, _t.toString(), \" \\n\"));\r\n            res = string(abi.encodePacked(res, getProductHistory(_t.getProductEntranceId()), \" \\n\"));\r\n        }\r\n        return res;\r\n    }\r\n\r\n\r\n    //Check on input informations and memory informations\r\n\r\n    function isActor(address checkAdresse) private view returns (bool){\r\n\t    for(uint i = 0; i < actors.length; i++){\r\n\t       if(actors[i].getAccount() == checkAdresse) return true;\r\n\t    }\r\n\t    return false;\r\n\t}\r\n\r\n\tfunction isActor(uint _actorId) private view returns (bool){\r\n\t    for(uint i = 0; i < actors.length; i++){\r\n\t       if(actors[i].getId() == _actorId) return true;\r\n\t    }\r\n\t    return false;\r\n\t}\r\n\r\n\tfunction isProductIdUnique(uint _entranceProductId) private view returns (bool){\r\n\t    transaction _t = suiviIdProduct[_entranceProductId];\r\n        return (address(_t) == 0x0000000000000000000000000000000000000000);\r\n\t}\r\n\r\n\r\n\t//Getters\r\n\r\n\t    //display all actors\r\n\tfunction seeActors() public view returns(string memory){\r\n        string memory res;\r\n\t    for(uint i = 0; i < actors.length; i++){\r\n\t        res = string(abi.encodePacked(res, actors[i].toString(), \"\\n\"));\r\n\t    }\r\n\t    return res;\r\n    }\r\n        //display all transactions\r\n\tfunction seeTransactions() public view returns(string memory){\r\n        string memory res;\r\n\t    for(uint i = 0; i < tabTransact.length; i++){\r\n\t        res = string(abi.encodePacked(res, tabTransact[i].toString(), \"\\n\"));\r\n\t    }\r\n\t    return res;\r\n    }\r\n\r\n        //display all partners from calling actor\r\n    function seePartners() public view returns(string memory){\r\n        require(isActor(msg.sender), \"You must be register as an actor to see your partners.\");\r\n        return getActor(msg.sender).seePartners();\r\n    }\r\n\r\n        //display all partnership proposals\r\n    function seePartnershipProposals() public view returns(partnershipProposal[] memory){\r\n        require(isActor(msg.sender), \"You must be register as an actor to see your partnership propositions.\");\r\n        require(listPartnershipProposals[msg.sender].length != 0, \"You don't have any partnership proposal.\");\r\n        return listPartnershipProposals[msg.sender];\r\n    }\r\n\r\n    function getTransaction(uint _id) private view returns (bool, transaction){\r\n        transaction t;\r\n        for(uint i = 0; i < tabTransact.length; i++){\r\n            if(tabTransact[i].getId() == _id) return (true, tabTransact[i]);\r\n\t    }\r\n\t    return(false, t);\r\n    }\r\n\r\n        //return actor from given address\r\n    function getActor(address checkAdresse) private view returns (actor){\r\n        for(uint i = 0; i < actors.length; i++){\r\n\t       if(actors[i].getAccount() == checkAdresse) return actors[i];\r\n\t    }\r\n    }\r\n\r\n        //return actor from given id\r\n    function getActor(uint _id) private view returns (actor){\r\n        for(uint i = 0; i < actors.length; i++){\r\n\t       if(actors[i].getId() == _id) return actors[i];\r\n\t    }\r\n    }\r\n\r\n        //return actors from given address and id\r\n    function findActorsInList(address checkAdresse, uint actorId) private view returns(actor, actor){\r\n\t    actor askPartnership;\r\n\t    actor isAskPartnership;\r\n\r\n\t    for(uint i = 0; i < actors.length; i++){\r\n\t        if(actors[i].getAccount() == checkAdresse) askPartnership = actors[i];\r\n\t        if(actors[i].getId() == actorId) isAskPartnership = actors[i];\r\n\t    }\r\n\r\n\t    return (askPartnership, isAskPartnership);\r\n\t}\r\n\r\n\t    //returns partnership proposal from given id\r\n\tfunction getAcceptedPartnershipProposal(uint partnershipId) private view returns (partnershipProposal memory, bool){\r\n        partnershipProposal[] memory partnershipList = listPartnershipProposals[msg.sender];\r\n        partnershipProposal memory pp;\r\n        for(uint i = 0; i < partnershipList.length; i++){\r\n\t       if(partnershipList[i].id == partnershipId) {\r\n\t           partnershipList[i].isAccepted = true;\r\n\t           return (partnershipList[i], true);\r\n\t       }\r\n\t    }\r\n\t    return (pp, false);\r\n    }\r\n\r\n        //returns all potential direct and indirect prestataire\r\n    function seeAllPotentielFournisseurs(uint _actorId) public view returns (string memory){\r\n        string memory res;\r\n        require(isActor(_actorId), \"You must be register as an actor to see your potential fournisseurs.\");\r\n        //reccuperer l'actor\r\n        actor _actor = getActor(_actorId);\r\n        //reccuperer ses partenaires\r\n        actor[] memory fournisseurActor = _actor.getFournisseurs();\r\n\r\n        if(fournisseurActor.length != 0){\r\n            res = string(abi.encodePacked(\"Fournisseurs of : \", _actor.getType(), \" --> \"));\r\n            for(uint i = 0; i < fournisseurActor.length; i++){\r\n                res = string(abi.encodePacked(res, \"*** \", fournisseurActor[i].getType(), \", \", fournisseurActor[i].getCountry(), \", DBNum : \", uintToStr(fournisseurActor[i].getDbNum()), \" ***\"));\r\n                res = string(abi.encodePacked(res, seeAllPotentielFournisseurs(fournisseurActor[i].getId()), \" \\n\"));\r\n            }\r\n        }\r\n\r\n        return res;\r\n    }\r\n\r\n    function uintToStr(uint _i) internal pure returns (string memory _uintAsString) {\r\n          uint number = _i;\r\n          if (number == 0) {\r\n              return \"0\";\r\n          }\r\n          uint j = number;\r\n          uint len;\r\n          while (j != 0) {\r\n              len++;\r\n              j /= 10;\r\n          }\r\n          bytes memory bstr = new bytes(len);\r\n          uint k = len - 1;\r\n          while (number != 0) {\r\n              bstr[k--] = byte(uint8(48 + number % 10));\r\n              number /= 10;\r\n          }\r\n          return string(bstr);\r\n      }\r\n\r\n}\r\n\r\ncontract transaction {\r\n\r\n    actor mandataire;\r\n    actor prestataire;\r\n    string date;\r\n\r\n    uint id;\r\n\r\n    uint256 productEntranceId;\r\n    uint256[] productExitId;\r\n\r\n    bool finish;\r\n\r\n    constructor(uint _id, actor _mandataire, actor _prestataire, string memory _date, uint _productEntranceId) public {\r\n        id =_id;\r\n        mandataire = _mandataire;\r\n        prestataire = _prestataire;\r\n        date = _date;\r\n        productEntranceId = _productEntranceId;\r\n    }\r\n\r\n    //Getters / Setters\r\n\r\n    function getId() public view returns(uint){\r\n        return id;\r\n    }\r\n\r\n    function getPrestataire() public view returns (actor) {\r\n        return prestataire;\r\n    }\r\n\r\n    function getMandataire() public view returns (actor) {\r\n        return mandataire;\r\n    }\r\n\r\n    function getDate() public view returns (string memory) {\r\n        return date;\r\n    }\r\n\r\n    function toString() public view returns (string memory) {\r\n        return string(abi.encodePacked(\"*** Transaction ID : \", uintToStr(id), \" | Entrance Product Id : \", uintToStr(productEntranceId), \", Exit Product Id : \", seeProductExitId(), \" | Fournisseur : \", mandataire.getType(), \", \", mandataire.getCountry(), \", BD Number : \", uintToStr(mandataire.getDbNum()), \" | Acheteur : \",  prestataire.getType(), \", \", prestataire.getCountry(), \", BD Number : \", uintToStr(prestataire.getDbNum()), \"***\"));\r\n    }\r\n\r\n    function getProductEntranceId() public view returns(uint){\r\n        return productEntranceId;\r\n    }\r\n\r\n    //returns true if id already exists else false\r\n    function isProductEntranceId(uint256 _num) public view returns (bool) {\r\n        if(productEntranceId == _num) return true;\r\n        else return false;\r\n    }\r\n\r\n    function isProductExitId(uint256 _num) public view returns (bool) {\r\n        bool exist = false;\r\n        for(uint i = 0; i < productExitId.length; i++){\r\n           if(productExitId[i] == _num){\r\n               exist = true;\r\n           }\r\n        }\r\n        return exist;\r\n    }\r\n\r\n    //return true if add correctly else false\r\n    function addProductEntranceId(uint256 _num) public returns (bool) {\r\n        productEntranceId = _num;\r\n    }\r\n\r\n    //return true if add correctly else false\r\n    function addProductExitId(uint256 _num) public returns (bool) {\r\n        if(!isProductExitId(_num)){\r\n            productExitId.push(_num);\r\n            //require(!isProductEntranceId(_num), \"Number added.\");\r\n        }\r\n        else{\r\n            require(isProductExitId(_num), \"This number already exists in the list.\");\r\n        }\r\n    }\r\n\r\n    function seeProductExitId() public view returns (string memory) {\r\n        string memory res;\r\n        for(uint i = 0; i < productExitId.length; i++){\r\n            res = string(abi.encodePacked(res, uintToStr(productExitId[i]), \",\"));\r\n        }\r\n        return res;\r\n    }\r\n\r\n    //Internal Practical Function\r\n\r\n    function uintToStr(uint _i) internal pure returns (string memory _uintAsString) {\r\n        uint number = _i;\r\n        if (number == 0) {\r\n            return \"0\";\r\n        }\r\n        uint j = number;\r\n        uint len;\r\n        while (j != 0) {\r\n            len++;\r\n            j /= 10;\r\n        }\r\n        bytes memory bstr = new bytes(len);\r\n        uint k = len - 1;\r\n        while (number != 0) {\r\n            bstr[k--] = byte(uint8(48 + number % 10));\r\n            number /= 10;\r\n        }\r\n        return string(bstr);\r\n    }\r\n\r\n}\r\n\r\ncontract actor {\r\n\r\n    uint id;\r\n    string name;\r\n    string typeAct;\r\n    string country;\r\n    uint256 dbNum;\r\n\r\n    actor[] fournisseurs;\r\n    actor[] acheteurs;\r\n\r\n    address payable account;\r\n\r\n\r\n    constructor(address payable _account, uint _id, string memory _name, string memory _country, string memory _typeAct, uint256 _dbNum) public {\r\n        account = _account;\r\n        id = _id;\r\n        country = _country;\r\n        name = _name;\r\n        typeAct = _typeAct;\r\n        dbNum = _dbNum;\r\n    }\r\n\r\n    function toString() public view returns (string memory){\r\n        return string(abi.encodePacked(\"--- Id = \", uintToStr(id), \" | \", name, \", \", typeAct, \", \", country, \" | DBNum : \", uintToStr(dbNum), \" ---\"));\r\n    }\r\n\r\n   //Functions\r\n\r\n        //When you accept a partnership, the actor goes in your mandataire or prestataire list depending on his function\r\n    function acceptPartnership(actor acceptedPartner, bool askerIsFournisseur) public {\r\n        if(askerIsFournisseur) fournisseurs.push(acceptedPartner);\r\n        else acheteurs.push(acceptedPartner);\r\n    }\r\n        //When your proposal of partnership is accepted, the actor goes in your mandataire or prestataire list depending on his function\r\n    function partnershipProposalAccepted(actor acceptedPartner, bool askerIsFournisseur) public {\r\n        if(askerIsFournisseur) acheteurs.push(acceptedPartner);\r\n        else fournisseurs.push(acceptedPartner);\r\n    }\r\n\r\n     //Getters\r\n\r\n\tfunction getId() public view returns (uint) {\r\n\t\treturn id;\r\n\t}\r\n\r\n\tfunction getName() public view returns (string memory) {\r\n\t\treturn name;\r\n\t}\r\n\r\n\tfunction getType() public view returns (string memory) {\r\n\t\treturn typeAct;\r\n\t}\r\n\r\n\tfunction getDbNum() public view returns (uint) {\r\n\t\treturn dbNum;\r\n\t}\r\n\r\n    function getAccount() public view returns (address) {\r\n\t\treturn account;\r\n\t}\r\n\r\n  function getCountry() public view returns (string memory) {\r\n  return country;\r\n}\r\n\r\n\t    //display list of partners\r\n\tfunction seePartners() public view returns(string memory){\r\n\t    string memory res = string(abi.encodePacked(\"Partners of \", typeAct,\" : \"));\r\n\t    if(fournisseurs.length != 0){\r\n\t        res = string(abi.encodePacked(res, \"*** Fournisseurs --> \"));\r\n    \t    for(uint i = 0; i < fournisseurs.length; i++){\r\n    \t        res = string(abi.encodePacked(res, fournisseurs[i].toString(), \"\\n\"));\r\n    \t    }\r\n          res = string(abi.encodePacked(res, \" ***\"));\r\n\t    }\r\n\t    if(acheteurs.length != 0){\r\n    \t    res = string(abi.encodePacked(res, \"*** Acheteurs --> \"));\r\n    \t    for(uint i = 0; i < acheteurs.length; i++){\r\n    \t        res = string(abi.encodePacked(res, acheteurs[i].toString(), \"\\n\"));\r\n    \t    }\r\n          res = string(abi.encodePacked(res, \" ***\"));\r\n\t    }\r\n    \treturn res;\r\n\t}\r\n\r\n\tfunction getAcheteurs() public view returns (actor[] memory){\r\n\t    return acheteurs;\r\n\t}\r\n\r\n\tfunction getFournisseurs() public view returns (actor[] memory){\r\n\t    return fournisseurs;\r\n\t}\r\n\r\n    //Internal Practical Function\r\n\r\n\tfunction uintToStr(uint _i) internal pure returns (string memory _uintAsString) {\r\n        uint number = _i;\r\n        if (number == 0) {\r\n            return \"0\";\r\n        }\r\n        uint j = number;\r\n        uint len;\r\n        while (j != 0) {\r\n            len++;\r\n            j /= 10;\r\n        }\r\n        bytes memory bstr = new bytes(len);\r\n        uint k = len - 1;\r\n        while (number != 0) {\r\n            bstr[k--] = byte(uint8(48 + number % 10));\r\n            number /= 10;\r\n        }\r\n        return string(bstr);\r\n    }\r\n}\r\n",
  "sourcePath": "C:/Users/solen/Documents/5 IF/PSAT/eth-todo-list/contracts/PlateformPSAT.sol",
  "compiler": {
    "name": "solc",
    "version": "0.5.0+commit.1d4f565a.Emscripten.clang"
  },
  "schemaVersion": "3.0.1",
  "updatedAt": "2021-01-27T20:16:01.161Z",
  "devdoc": {
    "methods": {}
  },
  "userdoc": {
    "methods": {}
  }
}