{
  "contractName": "TrustOfChain",
  "abi": [
    {
      "constant": true,
      "inputs": [
        {
          "name": "",
          "type": "uint256"
        }
      ],
      "name": "certificates",
      "outputs": [
        {
          "name": "id",
          "type": "uint256"
        },
        {
          "components": [
            {
              "name": "id",
              "type": "uint256"
            },
            {
              "name": "account",
              "type": "address"
            },
            {
              "name": "name",
              "type": "string"
            },
            {
              "name": "typeAct",
              "type": "string"
            },
            {
              "name": "country",
              "type": "string"
            },
            {
              "name": "dbNum",
              "type": "uint256"
            }
          ],
          "name": "chainActor",
          "type": "tuple"
        },
        {
          "components": [
            {
              "name": "account",
              "type": "address"
            },
            {
              "name": "name",
              "type": "string"
            },
            {
              "name": "id",
              "type": "uint256"
            }
          ],
          "name": "auditGroup",
          "type": "tuple"
        },
        {
          "name": "certificateType",
          "type": "uint8"
        },
        {
          "name": "validated",
          "type": "bool"
        }
      ],
      "payable": false,
      "stateMutability": "view",
      "type": "function",
      "signature": "0x663b3e22"
    },
    {
      "inputs": [],
      "payable": false,
      "stateMutability": "nonpayable",
      "type": "constructor",
      "signature": "constructor"
    },
    {
      "constant": false,
      "inputs": [
        {
          "name": "_certificateId",
          "type": "uint256"
        }
      ],
      "name": "validateCertificate",
      "outputs": [],
      "payable": false,
      "stateMutability": "nonpayable",
      "type": "function",
      "signature": "0x12bff847"
    },
    {
      "constant": false,
      "inputs": [
        {
          "name": "name",
          "type": "string"
        },
        {
          "name": "typeAct",
          "type": "string"
        },
        {
          "name": "country",
          "type": "string"
        },
        {
          "name": "dbNum",
          "type": "uint256"
        }
      ],
      "name": "registerAsActor",
      "outputs": [],
      "payable": false,
      "stateMutability": "nonpayable",
      "type": "function",
      "signature": "0x612a0c6b"
    },
    {
      "constant": false,
      "inputs": [
        {
          "name": "_certificateType",
          "type": "uint8"
        }
      ],
      "name": "createCertificateDemand",
      "outputs": [],
      "payable": false,
      "stateMutability": "nonpayable",
      "type": "function",
      "signature": "0x21a08d0b"
    },
    {
      "constant": true,
      "inputs": [],
      "name": "seeCertificates",
      "outputs": [
        {
          "name": "",
          "type": "string"
        }
      ],
      "payable": false,
      "stateMutability": "view",
      "type": "function",
      "signature": "0x1d622998"
    },
    {
      "constant": true,
      "inputs": [],
      "name": "seeMyCertificatesDemande",
      "outputs": [
        {
          "name": "",
          "type": "string"
        }
      ],
      "payable": false,
      "stateMutability": "view",
      "type": "function",
      "signature": "0x10fd9e41"
    },
    {
      "constant": true,
      "inputs": [],
      "name": "seeMyCertificatesValidated",
      "outputs": [
        {
          "name": "",
          "type": "string"
        }
      ],
      "payable": false,
      "stateMutability": "view",
      "type": "function",
      "signature": "0xd500313f"
    }
  ],
  "bytecode": "0x60806040526000805560006004553480156200001a57600080fd5b506040805160608101825273b1b890ae2292c878b16bc11a652da1255d7e2a6180825282518084018452600e81527f47726f7570652041756469742041000000000000000000000000000000000000602080830191909152808401918252600094840185905291909352600181528151600080516020620042ce8339815191528054600160a060020a031916600160a060020a0390921691909117815592518051929392620000dc926000805160206200430e833981519152920190620010fb565b50604091820151600291909101558051606081018252737cded932cc982e81a0e1914deeafa7c602bccabe80825282518084018452600e81527f47726f757065204175646974204200000000000000000000000000000000000060208083019190915280840191825260019484018590526000929092529281528151600080516020620042ee8339815191528054600160a060020a031916600160a060020a0390921691909117815592518051929392620001aa926000805160206200428e833981519152920190620010fb565b5060409182015160029182015581516060810183527350d6b8739caee5fe1dfc7b3bf939e2390a08bc4180825283518085018552600e81527f47726f7570652041756469742043000000000000000000000000000000000000602080830191909152808401918252948301939093526000526001835280517f15e69e67430653d4e6b5aff4fbbff0fac4bec058e5f30d884e2e939c283202a28054600160a060020a031916600160a060020a0390921691909117815591518051919362000297927f15e69e67430653d4e6b5aff4fbbff0fac4bec058e5f30d884e2e939c283202a39290910190620010fb565b50604091820151600291820155815160c0810183526000808252739b40ecbc96f5fde9e498d6183f156aebb0a0d361602080840182815286518088018852600481527f546f6e79000000000000000000000000000000000000000000000000000000008184015285880190815287518089018952600b81527f436f74746f6e576f6f64730000000000000000000000000000000000000000008185015260608701528751808901909852600d88527f556e697465642053746174657300000000000000000000000000000000000000888401526080860197909752600660a08601529190925292815281516000805160206200432e83398151915290815592516000805160206200426e8339815191528054600160a060020a031916600160a060020a03909216919091179055925180519193620003ea926000805160206200422e8339815191529290910190620010fb565b506060820151805162000408916003840191602090910190620010fb565b506080820151805162000426916004840191602090910190620010fb565b5060a0918201516005918201556040805160c0810182526001815273cb8f292c0799379b9d24b681dfe173854fce83a96020808301828152845180860186528681527f4a6f686e790000000000000000000000000000000000000000000000000000008184015284860190815285518087018752600781527f466163746f72790000000000000000000000000000000000000000000000000081850152606086015285518087019096529585527f496e646961000000000000000000000000000000000000000000000000000000858301526080840194909452605a958301959095526000526002845280516000805160206200424e8339815191529081559151600080516020620042ae8339815191528054600160a060020a031916600160a060020a0390921691909117905591518051929391926200057a926000805160206200434e833981519152920190620010fb565b506060820151805162000598916003840191602090910190620010fb565b5060808201518051620005b6916004840191602090910190620010fb565b5060a08201518160050155905050620005ce62001180565b739b40ecbc96f5fde9e498d6183f156aebb0a0d361600052600260208181526040805160c0810182526000805160206200432e833981519152805482526000805160206200426e83398151915254600160a060020a0316828501526000805160206200422e833981519152805484516101006001831615026000190190911696909604601f81018690048602870186018552808752929591949386019391929091830182828015620006c45780601f106200069857610100808354040283529160200191620006c4565b820191906000526020600020905b815481529060010190602001808311620006a657829003601f168201915b505050918352505060038201805460408051602060026001851615610100026000190190941693909304601f81018490048402820184019092528181529382019392918301828280156200075c5780601f1062000730576101008083540402835291602001916200075c565b820191906000526020600020905b8154815290600101906020018083116200073e57829003601f168201915b505050918352505060048201805460408051602060026001851615610100026000190190941693909304601f8101849004840282018401909252818152938201939291830182828015620007f45780601f10620007c857610100808354040283529160200191620007f4565b820191906000526020600020905b815481529060010190602001808311620007d657829003601f168201915b5050505050815260200160058201548152505090506200081362001180565b73cb8f292c0799379b9d24b681dfe173854fce83a9600052600260208181526040805160c0810182526000805160206200424e83398151915280548252600080516020620042ae83398151915254600160a060020a0316828501526000805160206200434e833981519152805484516101006001831615026000190190911696909604601f81018690048602870186018552808752929591949386019391929091830182828015620009095780601f10620008dd5761010080835404028352916020019162000909565b820191906000526020600020905b815481529060010190602001808311620008eb57829003601f168201915b505050918352505060038201805460408051602060026001851615610100026000190190941693909304601f8101849004840282018401909252818152938201939291830182828015620009a15780601f106200097557610100808354040283529160200191620009a1565b820191906000526020600020905b8154815290600101906020018083116200098357829003601f168201915b505050918352505060048201805460408051602060026001851615610100026000190190941693909304601f810184900484028201840190925281815293820193929183018282801562000a395780601f1062000a0d5761010080835404028352916020019162000a39565b820191906000526020600020905b81548152906001019060200180831162000a1b57829003601f168201915b50505050508152602001600582015481525050905062000a58620011c0565b73b1b890ae2292c878b16bc11a652da1255d7e2a616000526001602081815260408051606081018252600080516020620042ce8339815191528054600160a060020a031682526000805160206200430e83398151915280548451600261010098831615989098026000190190911696909604601f810186900486028701860190945283865291949093858101939192919083018282801562000b3e5780601f1062000b125761010080835404028352916020019162000b3e565b820191906000526020600020905b81548152906001019060200180831162000b2057829003601f168201915b50505050508152602001600282015481525050905062000b5d620011c0565b737cded932cc982e81a0e1914deeafa7c602bccabe6000526001602081815260408051606081018252600080516020620042ee8339815191528054600160a060020a031682526000805160206200428e83398151915280548451600261010098831615989098026000190190911696909604601f810186900486028701860190945283865291949093858101939192919083018282801562000c435780601f1062000c175761010080835404028352916020019162000c43565b820191906000526020600020905b81548152906001019060200180831162000c2557829003601f168201915b50505050508152602001600282015481525050905062000c62620011c0565b62000c6c620011eb565b506040805160a0810182526000805480835260208084018a8152848601899052600160608601819052608086018190528084018555928452600380835293869020855181559051805193820193845580830151600283018054600160a060020a031916600160a060020a0390921691909117905595860151805195968796929590949362000d0093918701920190620010fb565b506060820151805162000d1e916003840191602090910190620010fb565b506080820151805162000d3c916004840191602090910190620010fb565b5060a0919091015160059091015560408201518051600783018054600160a060020a031916600160a060020a03909216919091178155602080830151805162000d8c9260088701920190620010fb565b50604091909101516002909101556060820151600a8201805460ff19166001838181111562000db757fe5b021790555060809190910151600a90910180549115156101000261ff001990921691909117905562000de8620011eb565b60a06040519081016040528060005481526020018781526020018581526020016000600181111562000e1657fe5b815260016020918201819052600080548083018255815260038084526040918290208551815585850151805194820194855580860151600283018054600160a060020a031916600160a060020a039092169190911790559283015180519697508796919593949362000e8e93870192910190620010fb565b506060820151805162000eac916003840191602090910190620010fb565b506080820151805162000eca916004840191602090910190620010fb565b5060a0919091015160059091015560408201518051600783018054600160a060020a031916600160a060020a03909216919091178155602080830151805162000f1a9260088701920190620010fb565b50604091909101516002909101556060820151600a8201805460ff19166001838181111562000f4557fe5b021790555060809190910151600a90910180549115156101000261ff001990921691909117905562000f76620011eb565b6040805160a08101825260005481526020810189905290810185905260608101600181526000602091820181905280546001808201835590825260038084526040928390208551815585850151805193820193845580860151600283018054600160a060020a031916600160a060020a03909216919091179055938401518051969750879691956200100e93870192910190620010fb565b50606082015180516200102c916003840191602090910190620010fb565b50608082015180516200104a916004840191602090910190620010fb565b5060a0919091015160059091015560408201518051600783018054600160a060020a031916600160a060020a0390921691909117815560208083015180516200109a9260088701920190620010fb565b50604091909101516002909101556060820151600a8201805460ff191660018381811115620010c557fe5b021790555060809190910151600a90910180549115156101000261ff0019909216919091179055506200124c9650505050505050565b828054600181600116156101000203166002900490600052602060002090601f016020900481019282601f106200113e57805160ff19168380011785556200116e565b828001600101855582156200116e579182015b828111156200116e57825182559160200191906001019062001151565b506200117c9291506200122c565b5090565b60c060405190810160405280600081526020016000600160a060020a03168152602001606081526020016060815260200160608152602001600081525090565b6060604051908101604052806000600160a060020a0316815260200160608152602001600081525090565b61018060405190810160405280600081526020016200120962001180565b815260200162001218620011c0565b815260200160008152600060209091015290565b6200124991905b808211156200117c576000815560010162001233565b90565b612fd2806200125c6000396000f3fe6080604052600436106100825763ffffffff7c010000000000000000000000000000000000000000000000000000000060003504166310fd9e41811461008757806312bff847146100b25780631d622998146100d457806321a08d0b146100e9578063612a0c6b14610109578063663b3e2214610129578063d500313f1461015a575b600080fd5b34801561009357600080fd5b5061009c61016f565b6040516100a99190612dcc565b60405180910390f35b3480156100be57600080fd5b506100d26100cd3660046129f8565b610807565b005b3480156100e057600080fd5b5061009c610926565b3480156100f557600080fd5b506100d261010436600461292a565b61105e565b34801561011557600080fd5b506100d2610124366004612950565b61142e565b34801561013557600080fd5b506101496101443660046129f8565b61157d565b6040516100a9959493929190612e63565b34801561016657600080fd5b5061009c611852565b6060610179611edc565b15156101a35760405160e560020a62461bcd02815260040161019a90612ddd565b60405180910390fd5b60606101ad61277b565b60005b6000548110156107fe57600081815260036020818152604092839020835160a08101855281548152845160c081018652600180840180548352600280860154600160a060020a031684880152968501805489516101009482161594909402600019011697909704601f810187900487028301870189528083529397949688870196939591949186019390919083018282801561028d5780601f106102625761010080835404028352916020019161028d565b820191906000526020600020905b81548152906001019060200180831161027057829003601f168201915b505050918352505060038201805460408051602060026001851615610100026000190190941693909304601f81018490048402820184019092528181529382019392918301828280156103215780601f106102f657610100808354040283529160200191610321565b820191906000526020600020905b81548152906001019060200180831161030457829003601f168201915b505050918352505060048201805460408051602060026001851615610100026000190190941693909304601f81018490048402820184019092528181529382019392918301828280156103b55780601f1061038a576101008083540402835291602001916103b5565b820191906000526020600020905b81548152906001019060200180831161039857829003601f168201915b50505091835250506005919091015460209182015290825260408051606081018252600785018054600160a060020a03168252600886018054845160026101006001841615026000190190921691909104601f8101879004870282018701909552848152958501959294919385830193928301828280156104775780601f1061044c57610100808354040283529160200191610477565b820191906000526020600020905b81548152906001019060200180831161045a57829003601f168201915b505050918352505060029190910154602091820152908252600a83015491019060ff1660018111156104a557fe5b60018111156104b057fe5b8152600a919091015460ff610100909104161515602091820152818101510151909250600160a060020a0316331480156104ec57506080820151155b156107f657826104ff836000015161210b565b83602001516060015184604001516020015161051e8660600151612228565b61052b87608001516122b2565b6040516020018087805190602001908083835b6020831061055d5780518252601f19909201916020918201910161053e565b51815160209384036101000a60001901801990921691161790527f2a2a2a2a204944203a2000000000000000000000000000000000000000000000919093019081528851600a90910192890191508083835b602083106105ce5780518252601f1990920191602091820191016105af565b51815160209384036101000a60001901801990921691161790527f3b204163746f72203a2000000000000000000000000000000000000000000000919093019081528751600a90910192880191508083835b6020831061063f5780518252601f199092019160209182019101610620565b51815160209384036101000a60001901801990921691161790527f3b2041756469742047726f757065203a20000000000000000000000000000000919093019081528651601190910192870191508083835b602083106106b05780518252601f199092019160209182019101610691565b51815160209384036101000a60001901801990921691161790527f3b2043657274696669636174652054797065203a200000000000000000000000919093019081528551601590910192860191508083835b602083106107215780518252601f199092019160209182019101610702565b51815160209384036101000a60001901801990921691161790527f3b2049732056616c696461746564203a20000000000000000000000000000000919093019081528451601190910192850191508083835b602083106107925780518252601f199092019160209182019101610773565b6001836020036101000a038019825116818451168082178552505050505050905001807f2a2a2a2a2a000000000000000000000000000000000000000000000000000000815250600501965050505050505060405160208183030381529060405292505b6001016101b0565b50909150505b90565b60006108116127b8565b61081961232f565b90925090508115156108405760405160e560020a62461bcd02815260040161019a90612e33565b61084983612436565b151561086a5760405160e560020a62461bcd02815260040161019a90612e53565b6000838152600360205260409020600a0154610100900460ff16156108a45760405160e560020a62461bcd02815260040161019a90612e23565b6000838152600360209081526040909120600a8101805461ff0019166101001790558251600782018054600160a060020a0390921673ffffffffffffffffffffffffffffffffffffffff19909216919091178155838301518051859492936109139360089091019201906127e3565b5060408201518160020155905050505050565b60608061093161277b565b60005b6000548110156107fe57600081815260036020818152604092839020835160a08101855281548152845160c081018652600180840180548352600280860154600160a060020a031684880152968501805489516101009482161594909402600019011697909704601f8101879004870283018701895280835293979496888701969395919491860193909190830182828015610a115780601f106109e657610100808354040283529160200191610a11565b820191906000526020600020905b8154815290600101906020018083116109f457829003601f168201915b505050918352505060038201805460408051602060026001851615610100026000190190941693909304601f8101849004840282018401909252818152938201939291830182828015610aa55780601f10610a7a57610100808354040283529160200191610aa5565b820191906000526020600020905b815481529060010190602001808311610a8857829003601f168201915b505050918352505060048201805460408051602060026001851615610100026000190190941693909304601f8101849004840282018401909252818152938201939291830182828015610b395780601f10610b0e57610100808354040283529160200191610b39565b820191906000526020600020905b815481529060010190602001808311610b1c57829003601f168201915b50505091835250506005919091015460209182015290825260408051606081018252600785018054600160a060020a03168252600886018054845160026101006001841615026000190190921691909104601f810187900487028201870190955284815295850195929491938583019392830182828015610bfb5780601f10610bd057610100808354040283529160200191610bfb565b820191906000526020600020905b815481529060010190602001808311610bde57829003601f168201915b505050918352505060029190910154602091820152908252600a83015491019060ff166001811115610c2957fe5b6001811115610c3457fe5b8152600a9190910154610100900460ff16151560209091015280519092508390610c5d9061210b565b836020015160600151846020015160800151610c80866020015160a0015161210b565b866040015160200151610c968860600151612228565b610ca389608001516122b2565b6040516020018089805190602001908083835b60208310610cd55780518252601f199092019160209182019101610cb6565b51815160209384036101000a60001901801990921691161790527f2a2a2a2a204944203a2000000000000000000000000000000000000000000000919093019081528a51600a909101928b0191508083835b60208310610d465780518252601f199092019160209182019101610d27565b51815160209384036101000a60001901801990921691161790527f3b204163746f72203a2000000000000000000000000000000000000000000000919093019081528951600a909101928a0191508083835b60208310610db75780518252601f199092019160209182019101610d98565b51815160209384036101000a60001901801990921691161790527f2c20000000000000000000000000000000000000000000000000000000000000919093019081528851600290910192890191508083835b60208310610e285780518252601f199092019160209182019101610e09565b51815160209384036101000a60001901801990921691161790527f2c2042444e756d203a2000000000000000000000000000000000000000000000919093019081528751600a90910192880191508083835b60208310610e995780518252601f199092019160209182019101610e7a565b51815160209384036101000a60001901801990921691161790527f3b2041756469742047726f757065203a20000000000000000000000000000000919093019081528651601190910192870191508083835b60208310610f0a5780518252601f199092019160209182019101610eeb565b51815160209384036101000a60001901801990921691161790527f3b2043657274696669636174652054797065203a200000000000000000000000919093019081528551601590910192860191508083835b60208310610f7b5780518252601f199092019160209182019101610f5c565b51815160209384036101000a60001901801990921691161790527f3b2049732056616c696461746564203a20000000000000000000000000000000919093019081528451601190910192850191508083835b60208310610fec5780518252601f199092019160209182019101610fcd565b6001836020036101000a038019825116818451168082178552505050505050905001807f2a2a2a2a2a0000000000000000000000000000000000000000000000000000008152506005019850505050505050505060405160208183030381529060405292508080600101915050610934565b611066611edc565b15156110875760405160e560020a62461bcd02815260040161019a90612e43565b61108f61285d565b33600090815260026020818152604092839020835160c08101855281548152600180830154600160a060020a03168285015282850180548751601f600019948316156101000294909401909116969096049182018590048502860185018752818652919592949286019383018282801561114a5780601f1061111f5761010080835404028352916020019161114a565b820191906000526020600020905b81548152906001019060200180831161112d57829003601f168201915b505050918352505060038201805460408051602060026001851615610100026000190190941693909304601f81018490048402820184019092528181529382019392918301828280156111de5780601f106111b3576101008083540402835291602001916111de565b820191906000526020600020905b8154815290600101906020018083116111c157829003601f168201915b505050918352505060048201805460408051602060026001851615610100026000190190941693909304601f81018490048402820184019092528181529382019392918301828280156112725780601f1061124757610100808354040283529160200191611272565b820191906000526020600020905b81548152906001019060200180831161125557829003601f168201915b50505050508152602001600582015481525050905061128f6127b8565b61129761277b565b60a06040519081016040528060005481526020018481526020018381526020018560018111156112c357fe5b8152600060209182018190528054600180820183559082526003808452604092839020855181558585015180519382019384558086015160028301805473ffffffffffffffffffffffffffffffffffffffff1916600160a060020a0390921691909117905593840151805196975087969195611344938701929101906127e3565b50606082015180516113609160038401916020909101906127e3565b506080820151805161137c9160048401916020909101906127e3565b5060a091909101516005909101556040820151805160078301805473ffffffffffffffffffffffffffffffffffffffff1916600160a060020a0390921691909117815560208083015180516113d792600887019201906127e3565b50604091909101516002909101556060820151600a8201805460ff19166001838181111561140157fe5b021790555060809190910151600a90910180549115156101000261ff001990921691909117905550505050565b60006114386127b8565b61144061232f565b909250905081156114665760405160e560020a62461bcd02815260040161019a90612e03565b61146e611edc565b1561148e5760405160e560020a62461bcd02815260040161019a90612df3565b61149661285d565b506040805160c08101825260048054600180820190925582523360208084018281528486018c8152606086018c9052608086018b905260a086018a90526000938452600280845296909320855181559051938101805473ffffffffffffffffffffffffffffffffffffffff1916600160a060020a0390951694909417909355905180519394859461152e9391850192909101906127e3565b506060820151805161154a9160038401916020909101906127e3565b50608082015180516115669160048401916020909101906127e3565b5060a0820151816005015590505050505050505050565b6003602081815260009283526040928390208054845160c081018652600180840180548352600280860154600160a060020a031684880152968501805489516101009482161594909402600019011697909704601f810187900487028301870189528083529397949692959094860193919291908301828280156116425780601f1061161757610100808354040283529160200191611642565b820191906000526020600020905b81548152906001019060200180831161162557829003601f168201915b505050918352505060038201805460408051602060026001851615610100026000190190941693909304601f81018490048402820184019092528181529382019392918301828280156116d65780601f106116ab576101008083540402835291602001916116d6565b820191906000526020600020905b8154815290600101906020018083116116b957829003601f168201915b505050918352505060048201805460408051602060026001851615610100026000190190941693909304601f810184900484028201840190925281815293820193929183018282801561176a5780601f1061173f5761010080835404028352916020019161176a565b820191906000526020600020905b81548152906001019060200180831161174d57829003601f168201915b50505091835250506005919091015460209182015260408051606081018252600785018054600160a060020a03168252600886018054845160026101006001841615026000190190921691909104601f81018790048702820187019095528481529596959294919385830193928301828280156118285780601f106117fd57610100808354040283529160200191611828565b820191906000526020600020905b81548152906001019060200180831161180b57829003601f168201915b505050918352505060029190910154602090910152600a9091015460ff8082169161010090041685565b606061185c611edc565b151561187d5760405160e560020a62461bcd02815260040161019a90612e13565b606061188761277b565b60005b6000548110156107fe57600081815260036020818152604092839020835160a08101855281548152845160c081018652600180840180548352600280860154600160a060020a031684880152968501805489516101009482161594909402600019011697909704601f81018790048702830187018952808352939794968887019693959194918601939091908301828280156119675780601f1061193c57610100808354040283529160200191611967565b820191906000526020600020905b81548152906001019060200180831161194a57829003601f168201915b505050918352505060038201805460408051602060026001851615610100026000190190941693909304601f81018490048402820184019092528181529382019392918301828280156119fb5780601f106119d0576101008083540402835291602001916119fb565b820191906000526020600020905b8154815290600101906020018083116119de57829003601f168201915b505050918352505060048201805460408051602060026001851615610100026000190190941693909304601f8101849004840282018401909252818152938201939291830182828015611a8f5780601f10611a6457610100808354040283529160200191611a8f565b820191906000526020600020905b815481529060010190602001808311611a7257829003601f168201915b50505091835250506005919091015460209182015290825260408051606081018252600785018054600160a060020a03168252600886018054845160026101006001841615026000190190921691909104601f810187900487028201870190955284815295850195929491938583019392830182828015611b515780601f10611b2657610100808354040283529160200191611b51565b820191906000526020600020905b815481529060010190602001808311611b3457829003601f168201915b505050918352505060029190910154602091820152908252600a83015491019060ff166001811115611b7f57fe5b6001811115611b8a57fe5b8152600a919091015460ff610100909104161515602091820152818101510151909250600160a060020a031633148015611bca5750608082015115156001145b15611ed45782611bdd836000015161210b565b836020015160600151846040015160200151611bfc8660600151612228565b611c0987608001516122b2565b6040516020018087805190602001908083835b60208310611c3b5780518252601f199092019160209182019101611c1c565b51815160209384036101000a60001901801990921691161790527f2a2a2a2a204944203a2000000000000000000000000000000000000000000000919093019081528851600a90910192890191508083835b60208310611cac5780518252601f199092019160209182019101611c8d565b51815160209384036101000a60001901801990921691161790527f3b204163746f72203a2000000000000000000000000000000000000000000000919093019081528751600a90910192880191508083835b60208310611d1d5780518252601f199092019160209182019101611cfe565b51815160209384036101000a60001901801990921691161790527f3b2041756469742047726f757065203a20000000000000000000000000000000919093019081528651601190910192870191508083835b60208310611d8e5780518252601f199092019160209182019101611d6f565b51815160209384036101000a60001901801990921691161790527f3b2043657274696669636174652054797065203a200000000000000000000000919093019081528551601590910192860191508083835b60208310611dff5780518252601f199092019160209182019101611de0565b51815160209384036101000a60001901801990921691161790527f3b2049732056616c696461746564203a20000000000000000000000000000000919093019081528451601190910192850191508083835b60208310611e705780518252601f199092019160209182019101611e51565b6001836020036101000a038019825116818451168082178552505050505050905001807f2a2a2a2a2a000000000000000000000000000000000000000000000000000000815250600501965050505050505060405160208183030381529060405292505b60010161188a565b6000611ee661285d565b33600090815260026020818152604092839020835160c08101855281548152600180830154600160a060020a03168285015282850180548751601f6000199483161561010002949094019091169690960491820185900485028601850187528186529195929492860193830182828015611fa15780601f10611f7657610100808354040283529160200191611fa1565b820191906000526020600020905b815481529060010190602001808311611f8457829003601f168201915b505050918352505060038201805460408051602060026001851615610100026000190190941693909304601f81018490048402820184019092528181529382019392918301828280156120355780601f1061200a57610100808354040283529160200191612035565b820191906000526020600020905b81548152906001019060200180831161201857829003601f168201915b505050918352505060048201805460408051602060026001851615610100026000190190941693909304601f81018490048402820184019092528181529382019392918301828280156120c95780601f1061209e576101008083540402835291602001916120c9565b820191906000526020600020905b8154815290600101906020018083116120ac57829003601f168201915b505050918352505060059190910154602091820152810151909150600160a060020a031615156120fd576000915050610804565b6001915050610804565b5090565b60608180151561215057505060408051808201909152600181527f30000000000000000000000000000000000000000000000000000000000000006020820152612223565b8060005b811561216857600101600a82049150612154565b6060816040519080825280601f01601f191660200182016040528015612195576020820181803883390190505b50905060001982015b841561221c5781516000198201917f01000000000000000000000000000000000000000000000000000000000000006030600a890601029184919081106121e157fe5b9060200101907effffffffffffffffffffffffffffffffffffffffffffffffffffffffffffff1916908160001a905350600a8504945061219e565b5093505050505b919050565b6060600182600181111561223857fe5b1415612278575060408051808201909152600d81527f456e7669726f6e6e656d656e74000000000000000000000000000000000000006020820152612223565b5060408051808201909152600681527f536f6369616c00000000000000000000000000000000000000000000000000006020820152612223565b60608115156122f5575060408051808201909152600581527f66616c73650000000000000000000000000000000000000000000000000000006020820152612223565b5060408051808201909152600481527f74727565000000000000000000000000000000000000000000000000000000006020820152612223565b60006123396127b8565b6123416127b8565b3360009081526001602081815260409283902083516060810185528154600160a060020a0316815281840180548651600261010097831615979097026000190190911695909504601f810185900485028601850190965285855290949193858401939092908301828280156123f75780601f106123cc576101008083540402835291602001916123f7565b820191906000526020600020905b8154815290600101906020018083116123da57829003601f168201915b5050509183525050600291909101546020909101528051909150600160a060020a0316151561242b57600092509050612432565b6001925090505b9091565b600061244061277b565b600083815260036020818152604092839020835160a08101855281548152845160c081018652600180840180548352600280860154600160a060020a031684880152968501805489516101009482161594909402600019011697909704601f81018790048702830187018952808352939794968887019693959194918601939091908301828280156125135780601f106124e857610100808354040283529160200191612513565b820191906000526020600020905b8154815290600101906020018083116124f657829003601f168201915b505050918352505060038201805460408051602060026001851615610100026000190190941693909304601f81018490048402820184019092528181529382019392918301828280156125a75780601f1061257c576101008083540402835291602001916125a7565b820191906000526020600020905b81548152906001019060200180831161258a57829003601f168201915b505050918352505060048201805460408051602060026001851615610100026000190190941693909304601f810184900484028201840190925281815293820193929183018282801561263b5780601f106126105761010080835404028352916020019161263b565b820191906000526020600020905b81548152906001019060200180831161261e57829003601f168201915b50505091835250506005919091015460209182015290825260408051606081018252600785018054600160a060020a03168252600886018054845160026101006001841615026000190190921691909104601f8101879004870282018701909552848152958501959294919385830193928301828280156126fd5780601f106126d2576101008083540402835291602001916126fd565b820191906000526020600020905b8154815290600101906020018083116126e057829003601f168201915b505050918352505060029190910154602091820152908252600a83015491019060ff16600181111561272b57fe5b600181111561273657fe5b8152600a9190910154610100900460ff161515602091820152818101510151909150600160a060020a03161515612771576000915050612223565b6001915050612223565b610180604051908101604052806000815260200161279761285d565b81526020016127a46127b8565b815260200160008152600060209091015290565b6060604051908101604052806000600160a060020a0316815260200160608152602001600081525090565b828054600181600116156101000203166002900490600052602060002090601f016020900481019282601f1061282457805160ff1916838001178555612851565b82800160010185558215612851579182015b82811115612851578251825591602001919060010190612836565b5061210792915061289d565b60c060405190810160405280600081526020016000600160a060020a03168152602001606081526020016060815260200160608152602001600081525090565b61080491905b8082111561210757600081556001016128a3565b60006128c38235612f38565b9392505050565b6000601f820183136128db57600080fd5b81356128ee6128e982612ee4565b612ebd565b9150808252602083016020830185838301111561290a57600080fd5b612915838284612f52565b50505092915050565b60006128c38235610804565b60006020828403121561293c57600080fd5b600061294884846128b7565b949350505050565b6000806000806080858703121561296657600080fd5b843567ffffffffffffffff81111561297d57600080fd5b612989878288016128ca565b945050602085013567ffffffffffffffff8111156129a657600080fd5b6129b2878288016128ca565b935050604085013567ffffffffffffffff8111156129cf57600080fd5b6129db878288016128ca565b92505060606129ec8782880161291e565b91505092959194509250565b600060208284031215612a0a57600080fd5b6000612948848461291e565b612a1f81612f10565b82525050565b612a1f81612f1b565b612a1f81612f47565b6000612a4282612f0c565b808452612a56816020860160208601612f5e565b612a5f81612f8e565b9093016020019392505050565b603581527f596f75206d75737420626520616e206163746f7220746f2073656520796f757260208201527f206365727469666963617465732064656d616e642e0000000000000000000000604082015260600190565b602781527f596f752061726520616c7265616479207265676973746572656420617320616e60208201527f206163746f722e00000000000000000000000000000000000000000000000000604082015260600190565b602481527f596f7520617265207265676973746572656420617320612067726f757020417560208201527f6469742e00000000000000000000000000000000000000000000000000000000604082015260600190565b603881527f596f75206d75737420626520616e206163746f7220746f2073656520796f757260208201527f206365727469666963617465732076616c6964617465642e0000000000000000604082015260600190565b602681527f596f757220636572746966696361746520697320616c72656164792076616c6960208201527f64617465642e0000000000000000000000000000000000000000000000000000604082015260600190565b601b81527f596f7520617265206e6f7420612067726f7570652041756469742e0000000000602082015260400190565b603481527f596f75206d75737420626520616e206163746f7220746f20637265617465206160208201527f2063657274696669636174652064656d616e642e000000000000000000000000604082015260600190565b602181527f596f7572206365727469666963617465204964206973206e6f742076616c696460208201527f2e00000000000000000000000000000000000000000000000000000000000000604082015260600190565b805160009060c0840190612d0a8582612dc3565b506020830151612d1d6020860182612a16565b5060408301518482036040860152612d358282612a37565b91505060608301518482036060860152612d4f8282612a37565b91505060808301518482036080860152612d698282612a37565b91505060a0830151612d7e60a0860182612dc3565b509392505050565b80516000906060840190612d9a8582612a16565b5060208301518482036020860152612db28282612a37565b9150506040830151612d7e60408601825b612a1f81610804565b602080825281016128c38184612a37565b60208082528101612ded81612a6c565b92915050565b60208082528101612ded81612ac2565b60208082528101612ded81612b18565b60208082528101612ded81612b6e565b60208082528101612ded81612bc4565b60208082528101612ded81612c1a565b60208082528101612ded81612c4a565b60208082528101612ded81612ca0565b60a08101612e718288612dc3565b8181036020830152612e838187612cf6565b90508181036040830152612e978186612d86565b9050612ea66060830185612a2e565b612eb36080830184612a25565b9695505050505050565b60405181810167ffffffffffffffff81118282101715612edc57600080fd5b604052919050565b600067ffffffffffffffff821115612efb57600080fd5b506020601f91909101601f19160190565b5190565b6000612ded82612f2c565b151590565b60006002821061210757fe5b600160a060020a031690565b60006002821061210757600080fd5b6000612ded82612f20565b82818337506000910152565b60005b83811015612f79578181015183820152602001612f61565b83811115612f88576000848401525b50505050565b601f01601f19169056fea265627a7a723058208f56a2e1eb4bb545833d0c96fc5f264d298198c5c3ee2545d20a73f88748f4a46c6578706572696d656e74616cf500379ca5432fa03db973a73691711f6bbb4e8ef3dbc9bcddaf65c215b2380cbe38cee35ce4406c7bae5511834ae859800662249f1d8bfd6a139960b674203c91d45b9ca5432fa03db973a73691711f6bbb4e8ef3dbc9bcddaf65c215b2380cbe38cd810d37f8ce5d946af64bb5d03bdcb5ba68c1b883e24b910403303cf53d761a78e35ce4406c7bae5511834ae859800662249f1d8bfd6a139960b674203c91d45c3aa4918069b45630f93847a2e99178a99aa096871a8e58719f2ebad7ea36a649810d37f8ce5d946af64bb5d03bdcb5ba68c1b883e24b910403303cf53d761a773aa4918069b45630f93847a2e99178a99aa096871a8e58719f2ebad7ea36a64a9ca5432fa03db973a73691711f6bbb4e8ef3dbc9bcddaf65c215b2380cbe38cce35ce4406c7bae5511834ae859800662249f1d8bfd6a139960b674203c91d45d",
  "source": "pragma solidity ^0.5.0;\r\npragma experimental ABIEncoderV2;\r\n\r\ncontract TrustOfChain{\r\n\r\n    uint certificateNumber = 0;\r\n    enum CertificateType { humanImpact, environnementImpact }\r\n\r\n    mapping(address => GroupeAudit) groupeAudit;\r\n    mapping(address => Actor) actors;\r\n    mapping(uint => Certificate) public certificates;\r\n\r\n    uint nbActor = 0;\r\n\r\n    struct Certificate{\r\n        uint id;\r\n        Actor chainActor;\r\n        GroupeAudit auditGroup;\r\n        CertificateType certificateType;\r\n        bool validated;\r\n    }\r\n\r\n    struct GroupeAudit{\r\n        address account;\r\n        string name;\r\n        uint id;\r\n    }\r\n\r\n    struct Actor{\r\n        uint id;\r\n        address account;\r\n        string name;\r\n        string typeAct;\r\n        string country;\r\n        uint256 dbNum;\r\n    }\r\n\r\n    constructor() public {\r\n\r\n        groupeAudit[0xb1b890aE2292c878b16bC11a652da1255d7E2a61] = GroupeAudit(0xb1b890aE2292c878b16bC11a652da1255d7E2a61, \"Groupe Audit A\", 0);\r\n        groupeAudit[0x7CDeD932Cc982E81A0E1914dEEAfa7C602bcCabE] = GroupeAudit(0x7CDeD932Cc982E81A0E1914dEEAfa7C602bcCabE, \"Groupe Audit B\", 1);\r\n        groupeAudit[0x50D6b8739caEe5Fe1DFC7b3bf939e2390A08bc41] = GroupeAudit(0x50D6b8739caEe5Fe1DFC7b3bf939e2390A08bc41, \"Groupe Audit C\", 2);\r\n\r\n        actors[0x9B40eCBc96f5fde9E498D6183f156AEbB0a0D361] = Actor(0, 0x9B40eCBc96f5fde9E498D6183f156AEbB0a0D361, \"Tony\", \"CottonWoods\", \"United States\", 6);\r\n        actors[0xCb8F292C0799379b9D24b681DFe173854FCe83a9] = Actor(1, 0xCb8F292C0799379b9D24b681DFe173854FCe83a9, \"Johny\", \"Factory\", \"India\", 90);\r\n\r\n        Actor memory _a1 = actors[0x9B40eCBc96f5fde9E498D6183f156AEbB0a0D361];\r\n        Actor memory _a2 = actors[0xCb8F292C0799379b9D24b681DFe173854FCe83a9];\r\n        GroupeAudit memory _g1 = groupeAudit[0xb1b890aE2292c878b16bC11a652da1255d7E2a61];\r\n        GroupeAudit memory _g2 = groupeAudit[0x7CDeD932Cc982E81A0E1914dEEAfa7C602bcCabE];\r\n        GroupeAudit memory _g3;\r\n        Certificate memory _c1 = Certificate(certificateNumber, _a1, _g1, CertificateType.environnementImpact, true);\r\n        certificates[certificateNumber ++] = _c1;\r\n        Certificate memory _c2 = Certificate(certificateNumber, _a2, _g2, CertificateType.humanImpact, true);\r\n        certificates[certificateNumber ++] = _c2;\r\n        Certificate memory _c3 = Certificate(certificateNumber, _a2, _g3, CertificateType.environnementImpact, false);\r\n        certificates[certificateNumber ++] = _c3;\r\n\r\n    }\r\n\r\n    function validateCertificate(uint _certificateId) public{\r\n        bool isGroupeAudit;\r\n        GroupeAudit memory _ga;\r\n        (isGroupeAudit, _ga) = getGroupeAudit();\r\n        require(isGroupeAudit, \"You are not a groupe Audit.\");\r\n        require(isCertificateIdValid(_certificateId), \"Your certificate Id is not valid.\");\r\n        require(!certificates[_certificateId].validated, \"Your certificate is already validated.\");\r\n        certificates[_certificateId].validated = true;\r\n        certificates[_certificateId].auditGroup = _ga;\r\n    }\r\n\r\n    function getGroupeAudit() private view returns (bool, GroupeAudit memory){\r\n        GroupeAudit memory _ga = groupeAudit[msg.sender];\r\n        if(_ga.account == 0x0000000000000000000000000000000000000000) return (false, _ga);\r\n        else return (true, _ga);\r\n    }\r\n\r\n    function isCertificateIdValid (uint _certificateId) private view returns (bool){\r\n        Certificate memory _c = certificates[_certificateId];\r\n        if(_c.chainActor.account == 0x0000000000000000000000000000000000000000) return false;\r\n        else return true;\r\n    }\r\n\r\n    function isActor() private view returns (bool){\r\n        Actor memory _a = actors[msg.sender];\r\n        if(_a.account == 0x0000000000000000000000000000000000000000) return false;\r\n        else return true;\r\n    }\r\n\r\n    function registerAsActor(string memory name, string memory typeAct, string memory country, uint256 dbNum) public{\r\n        bool isGroupeAudit;\r\n        GroupeAudit memory _ga;\r\n        (isGroupeAudit, _ga) = getGroupeAudit();\r\n        require(!isGroupeAudit, \"You are registered as a group Audit.\");\r\n        require(!isActor(), \"You are already registered as an actor.\");\r\n        Actor memory _a = Actor(nbActor++, msg.sender, name, typeAct, country, dbNum);\r\n        actors[msg.sender] = _a;\r\n    }\r\n\r\n    function createCertificateDemand(CertificateType _certificateType) public{\r\n        require(isActor(), \"You must be an actor to create a certificate demand.\");\r\n        Actor memory _a = actors[msg.sender];\r\n        GroupeAudit memory _g;\r\n        Certificate memory _c = Certificate(certificateNumber, _a, _g, _certificateType, false);\r\n        certificates[certificateNumber ++] = _c;\r\n    }\r\n\r\n    function seeCertificates() public view returns (string memory){\r\n        string memory res;\r\n        Certificate memory _c;\r\n        for(uint i = 0; i < certificateNumber; i++){\r\n            _c = certificates[i];\r\n            res = string(abi.encodePacked(res, \"**** ID : \", uintToStr(_c.id), \"; Actor : \", _c.chainActor.typeAct, \", \", _c.chainActor.country, \", BDNum : \", uintToStr(_c.chainActor.dbNum), \"; Audit Groupe : \", _c.auditGroup.name, \"; Certificate Type : \", certToStr(_c.certificateType), \"; Is Validated : \", boolToStr(_c.validated), \"*****\"));\r\n        }\r\n        return res;\r\n\r\n    }\r\n\r\n    function seeMyCertificatesDemande() public view returns (string memory){\r\n        require(isActor(), \"You must be an actor to see your certificates demand.\");\r\n        string memory res;\r\n        Certificate memory _c;\r\n        for(uint i = 0; i < certificateNumber; i++){\r\n            _c = certificates[i];\r\n            if(_c.chainActor.account == msg.sender && _c.validated == false) res = string(abi.encodePacked(res, \"**** ID : \", uintToStr(_c.id), \"; Actor : \", _c.chainActor.typeAct, \"; Audit Groupe : \", _c.auditGroup.name, \"; Certificate Type : \", certToStr(_c.certificateType), \"; Is Validated : \", boolToStr(_c.validated), \"*****\"));\r\n        }\r\n        return res;\r\n    }\r\n\r\n    function seeMyCertificatesValidated() public view returns (string memory){\r\n        require(isActor(), \"You must be an actor to see your certificates validated.\");\r\n        string memory res;\r\n        Certificate memory _c;\r\n        for(uint i = 0; i < certificateNumber; i++){\r\n            _c = certificates[i];\r\n            if(_c.chainActor.account == msg.sender && _c.validated == true) res = string(abi.encodePacked(res, \"**** ID : \", uintToStr(_c.id), \"; Actor : \", _c.chainActor.typeAct, \"; Audit Groupe : \", _c.auditGroup.name, \"; Certificate Type : \", certToStr(_c.certificateType), \"; Is Validated : \", boolToStr(_c.validated), \"*****\"));\r\n        }\r\n        return res;\r\n    }\r\n\r\n    function certToStr(CertificateType _cert) internal pure returns(string memory _certAsStr){\r\n      if(_cert == CertificateType.environnementImpact) return \"Environnement\";\r\n      else return \"Social\";\r\n    }\r\n\r\n    function boolToStr(bool _bool) internal pure returns (string memory _boolAsString) {\r\n        if (_bool == false)  return \"false\";\r\n        else return \"true\";\r\n    }\r\n\r\n    function uintToStr(uint _i) internal pure returns (string memory _uintAsString) {\r\n        uint number = _i;\r\n        if (number == 0) {\r\n            return \"0\";\r\n        }\r\n        uint j = number;\r\n        uint len;\r\n        while (j != 0) {\r\n            len++;\r\n            j /= 10;\r\n        }\r\n        bytes memory bstr = new bytes(len);\r\n        uint k = len - 1;\r\n        while (number != 0) {\r\n            bstr[k--] = byte(uint8(48 + number % 10));\r\n            number /= 10;\r\n        }\r\n        return string(bstr);\r\n    }\r\n}\r\n",
  "sourcePath": "C:/Users/solen/Documents/5 IF/PSAT/eth-todo-list/contracts/TrustOfChain.sol",
  "compiler": {
    "name": "solc",
    "version": "0.5.0+commit.1d4f565a.Emscripten.clang"
  },
  "schemaVersion": "3.0.1",
  "updatedAt": "2021-01-27T20:16:10.240Z",
  "devdoc": {
    "methods": {}
  },
  "userdoc": {
    "methods": {}
  }
}